{"contracts/RetirementCalculator.sol":{"RetirementCalculator":{"abi":[{"inputs":[{"internalType":"address","name":"_ethUsdPriceFeed","type":"address"},{"internalType":"address","name":"initialOwner","type":"address"}],"stateMutability":"nonpayable","type":"constructor"},{"inputs":[{"internalType":"address","name":"owner","type":"address"}],"name":"OwnableInvalidOwner","type":"error"},{"inputs":[{"internalType":"address","name":"account","type":"address"}],"name":"OwnableUnauthorizedAccount","type":"error"},{"inputs":[],"name":"ReentrancyGuardReentrantCall","type":"error"},{"anonymous":false,"inputs":[{"indexed":true,"internalType":"address","name":"user","type":"address"},{"indexed":false,"internalType":"uint256","name":"amount","type":"uint256"},{"indexed":false,"internalType":"uint256","name":"totalDeposited","type":"uint256"},{"indexed":false,"internalType":"uint256","name":"targetAmount","type":"uint256"}],"name":"FundsDeposited","type":"event"},{"anonymous":false,"inputs":[{"indexed":true,"internalType":"address","name":"user","type":"address"},{"indexed":false,"internalType":"uint256","name":"amount","type":"uint256"},{"indexed":false,"internalType":"uint256","name":"paymentsRemaining","type":"uint256"}],"name":"MonthlyPaymentSent","type":"event"},{"anonymous":false,"inputs":[{"indexed":true,"internalType":"address","name":"previousOwner","type":"address"},{"indexed":true,"internalType":"address","name":"newOwner","type":"address"}],"name":"OwnershipTransferred","type":"event"},{"anonymous":false,"inputs":[{"indexed":true,"internalType":"address","name":"user","type":"address"},{"indexed":false,"internalType":"uint256","name":"totalPaidOut","type":"uint256"}],"name":"PaymentsCompleted","type":"event"},{"anonymous":false,"inputs":[{"indexed":false,"internalType":"uint256","name":"blockNumber","type":"uint256"},{"indexed":false,"internalType":"uint256","name":"ethPriceUSD","type":"uint256"}],"name":"PriceFeedUpdated","type":"event"},{"anonymous":false,"inputs":[{"indexed":true,"internalType":"address","name":"user","type":"address"},{"indexed":false,"internalType":"uint256","name":"requiredInvestment","type":"uint256"}],"name":"RetirementPlanCreated","type":"event"},{"anonymous":false,"inputs":[{"indexed":true,"internalType":"address","name":"user","type":"address"},{"indexed":false,"internalType":"uint256","name":"newRequiredInvestment","type":"uint256"}],"name":"RetirementPlanUpdated","type":"event"},{"anonymous":false,"inputs":[{"indexed":true,"internalType":"address","name":"user","type":"address"},{"indexed":false,"internalType":"uint256","name":"targetAmount","type":"uint256"}],"name":"TargetReached","type":"event"},{"anonymous":false,"inputs":[{"indexed":false,"internalType":"uint256","name":"timestamp","type":"uint256"},{"indexed":false,"internalType":"uint256","name":"yieldRate","type":"uint256"}],"name":"YieldRateUpdated","type":"event"},{"inputs":[],"name":"BASIS_POINTS","outputs":[{"internalType":"uint256","name":"","type":"uint256"}],"stateMutability":"view","type":"function"},{"inputs":[],"name":"ETH_DECIMALS","outputs":[{"internalType":"uint256","name":"","type":"uint256"}],"stateMutability":"view","type":"function"},{"inputs":[],"name":"MONTHS_PER_YEAR","outputs":[{"internalType":"uint256","name":"","type":"uint256"}],"stateMutability":"view","type":"function"},{"inputs":[],"name":"PRICE_UPDATE_INTERVAL","outputs":[{"internalType":"uint256","name":"","type":"uint256"}],"stateMutability":"view","type":"function"},{"inputs":[],"name":"SECONDS_PER_MONTH","outputs":[{"internalType":"uint256","name":"","type":"uint256"}],"stateMutability":"view","type":"function"},{"inputs":[],"name":"SECONDS_PER_YEAR","outputs":[{"internalType":"uint256","name":"","type":"uint256"}],"stateMutability":"view","type":"function"},{"inputs":[],"name":"USD_SCALE","outputs":[{"internalType":"uint256","name":"","type":"uint256"}],"stateMutability":"view","type":"function"},{"inputs":[{"internalType":"uint256","name":"monthlyRate","type":"uint256"},{"internalType":"uint256","name":"months","type":"uint256"}],"name":"calculateAnnuityFactor","outputs":[{"internalType":"uint256","name":"factor","type":"uint256"}],"stateMutability":"pure","type":"function"},{"inputs":[{"internalType":"uint256","name":"inflationRate","type":"uint256"},{"internalType":"uint256","name":"months","type":"uint256"}],"name":"calculateInflationMultiplier","outputs":[{"internalType":"uint256","name":"multiplier","type":"uint256"}],"stateMutability":"pure","type":"function"},{"inputs":[{"internalType":"uint256","name":"investmentAmountUSD","type":"uint256"},{"internalType":"uint256","name":"lifeExpectancyYears","type":"uint256"},{"internalType":"uint256","name":"yieldRate","type":"uint256"},{"internalType":"uint256","name":"inflationRate","type":"uint256"}],"name":"calculateMonthlyPayment","outputs":[{"internalType":"uint256","name":"monthlyPaymentUSD","type":"uint256"}],"stateMutability":"view","type":"function"},{"inputs":[{"internalType":"uint256","name":"base","type":"uint256"},{"internalType":"uint256","name":"exponent","type":"uint256"}],"name":"calculatePower","outputs":[{"internalType":"uint256","name":"result","type":"uint256"}],"stateMutability":"pure","type":"function"},{"inputs":[{"internalType":"uint256","name":"futureValue","type":"uint256"},{"internalType":"uint256","name":"annualRate","type":"uint256"},{"internalType":"uint256","name":"months","type":"uint256"}],"name":"calculatePresentValue","outputs":[{"internalType":"uint256","name":"presentValue","type":"uint256"}],"stateMutability":"pure","type":"function"},{"inputs":[{"internalType":"uint256","name":"lifeExpectancyYears","type":"uint256"},{"internalType":"uint256","name":"monthlySpendingUSD","type":"uint256"},{"internalType":"uint256","name":"retirementAge","type":"uint256"},{"internalType":"uint256","name":"currentAge","type":"uint256"},{"internalType":"uint256","name":"yieldRate","type":"uint256"},{"internalType":"uint256","name":"inflationRate","type":"uint256"}],"name":"calculateRequiredInvestment","outputs":[{"internalType":"uint256","name":"requiredInvestment","type":"uint256"}],"stateMutability":"view","type":"function"},{"inputs":[{"internalType":"uint256","name":"lifeExpectancyYears","type":"uint256"},{"internalType":"uint256","name":"monthlySpendingUSD","type":"uint256"},{"internalType":"uint256","name":"retirementAge","type":"uint256"},{"internalType":"uint256","name":"currentAge","type":"uint256"},{"internalType":"uint256","name":"yieldRate","type":"uint256"},{"internalType":"uint256","name":"inflationRate","type":"uint256"}],"name":"createRetirementPlan","outputs":[],"stateMutability":"nonpayable","type":"function"},{"inputs":[],"name":"deactivateRetirementPlan","outputs":[],"stateMutability":"nonpayable","type":"function"},{"inputs":[],"name":"defaultInflationRate","outputs":[{"internalType":"uint256","name":"","type":"uint256"}],"stateMutability":"view","type":"function"},{"inputs":[],"name":"defaultYieldRate","outputs":[{"internalType":"uint256","name":"","type":"uint256"}],"stateMutability":"view","type":"function"},{"inputs":[],"name":"depositFunds","outputs":[],"stateMutability":"payable","type":"function"},{"inputs":[],"name":"ethUsdPriceFeed","outputs":[{"internalType":"contract AggregatorV3Interface","name":"","type":"address"}],"stateMutability":"view","type":"function"},{"inputs":[{"internalType":"address","name":"user","type":"address"}],"name":"executeMonthlyPayment","outputs":[],"stateMutability":"nonpayable","type":"function"},{"inputs":[],"name":"getEthUsdPrice","outputs":[{"internalType":"uint256","name":"price","type":"uint256"}],"stateMutability":"view","type":"function"},{"inputs":[{"internalType":"address","name":"user","type":"address"}],"name":"getRemainingAmount","outputs":[{"internalType":"uint256","name":"remaining","type":"uint256"}],"stateMutability":"view","type":"function"},{"inputs":[{"internalType":"address","name":"user","type":"address"}],"name":"getRequiredInvestment","outputs":[{"internalType":"uint256","name":"requiredInvestment","type":"uint256"}],"stateMutability":"view","type":"function"},{"inputs":[{"internalType":"address","name":"user","type":"address"}],"name":"getRetirementPlan","outputs":[{"components":[{"internalType":"uint256","name":"lifeExpectancyYears","type":"uint256"},{"internalType":"uint256","name":"monthlySpendingUSD","type":"uint256"},{"internalType":"uint256","name":"retirementAge","type":"uint256"},{"internalType":"uint256","name":"currentAge","type":"uint256"},{"internalType":"uint256","name":"expectedYieldRate","type":"uint256"},{"internalType":"uint256","name":"inflationRate","type":"uint256"},{"internalType":"bool","name":"isActive","type":"bool"}],"internalType":"struct RetirementCalculator.RetirementPlan","name":"plan","type":"tuple"}],"stateMutability":"view","type":"function"},{"inputs":[{"internalType":"address","name":"user","type":"address"}],"name":"getUserSavings","outputs":[{"components":[{"internalType":"uint256","name":"totalDeposited","type":"uint256"},{"internalType":"uint256","name":"targetAmount","type":"uint256"},{"internalType":"bool","name":"paymentsStarted","type":"bool"},{"internalType":"uint256","name":"lastPaymentTime","type":"uint256"},{"internalType":"uint256","name":"paymentsRemaining","type":"uint256"},{"internalType":"uint256","name":"totalPaidOut","type":"uint256"}],"internalType":"struct RetirementCalculator.UserSavings","name":"savings","type":"tuple"}],"stateMutability":"view","type":"function"},{"inputs":[{"internalType":"address","name":"user","type":"address"}],"name":"hasReachedTarget","outputs":[{"internalType":"bool","name":"reached","type":"bool"}],"stateMutability":"view","type":"function"},{"inputs":[{"internalType":"uint256","name":"","type":"uint256"}],"name":"historicalYields","outputs":[{"internalType":"uint256","name":"","type":"uint256"}],"stateMutability":"view","type":"function"},{"inputs":[],"name":"lastPriceUpdateBlock","outputs":[{"internalType":"uint256","name":"","type":"uint256"}],"stateMutability":"view","type":"function"},{"inputs":[],"name":"owner","outputs":[{"internalType":"address","name":"","type":"address"}],"stateMutability":"view","type":"function"},{"inputs":[],"name":"renounceOwnership","outputs":[],"stateMutability":"nonpayable","type":"function"},{"inputs":[{"internalType":"address","name":"","type":"address"}],"name":"retirementPlans","outputs":[{"internalType":"uint256","name":"lifeExpectancyYears","type":"uint256"},{"internalType":"uint256","name":"monthlySpendingUSD","type":"uint256"},{"internalType":"uint256","name":"retirementAge","type":"uint256"},{"internalType":"uint256","name":"currentAge","type":"uint256"},{"internalType":"uint256","name":"expectedYieldRate","type":"uint256"},{"internalType":"uint256","name":"inflationRate","type":"uint256"},{"internalType":"bool","name":"isActive","type":"bool"}],"stateMutability":"view","type":"function"},{"inputs":[],"name":"totalFundsUnderManagement","outputs":[{"internalType":"uint256","name":"","type":"uint256"}],"stateMutability":"view","type":"function"},{"inputs":[],"name":"totalPaymentsProcessed","outputs":[{"internalType":"uint256","name":"","type":"uint256"}],"stateMutability":"view","type":"function"},{"inputs":[{"internalType":"address","name":"newOwner","type":"address"}],"name":"transferOwnership","outputs":[],"stateMutability":"nonpayable","type":"function"},{"inputs":[],"name":"updatePriceFeed","outputs":[],"stateMutability":"nonpayable","type":"function"},{"inputs":[{"internalType":"uint256","name":"lifeExpectancyYears","type":"uint256"},{"internalType":"uint256","name":"monthlySpendingUSD","type":"uint256"},{"internalType":"uint256","name":"retirementAge","type":"uint256"},{"internalType":"uint256","name":"currentAge","type":"uint256"},{"internalType":"uint256","name":"yieldRate","type":"uint256"},{"internalType":"uint256","name":"inflationRate","type":"uint256"}],"name":"updateRetirementPlan","outputs":[],"stateMutability":"nonpayable","type":"function"},{"inputs":[{"internalType":"uint256","name":"usdAmount","type":"uint256"}],"name":"usdToWei","outputs":[{"internalType":"uint256","name":"weiAmount","type":"uint256"}],"stateMutability":"view","type":"function"},{"inputs":[{"internalType":"address","name":"","type":"address"}],"name":"userSavings","outputs":[{"internalType":"uint256","name":"totalDeposited","type":"uint256"},{"internalType":"uint256","name":"targetAmount","type":"uint256"},{"internalType":"bool","name":"paymentsStarted","type":"bool"},{"internalType":"uint256","name":"lastPaymentTime","type":"uint256"},{"internalType":"uint256","name":"paymentsRemaining","type":"uint256"},{"internalType":"uint256","name":"totalPaidOut","type":"uint256"}],"stateMutability":"view","type":"function"},{"inputs":[{"internalType":"uint256","name":"weiAmount","type":"uint256"}],"name":"weiToUsd","outputs":[{"internalType":"uint256","name":"usdAmount","type":"uint256"}],"stateMutability":"view","type":"function"},{"inputs":[],"name":"withdrawFunds","outputs":[],"stateMutability":"nonpayable","type":"function"},{"stateMutability":"payable","type":"receive"}],"evm":{"bytecode":{"linkReferences":{},"object":"6080346200015357620022ee90601f38839003908101601f19168201906001600160401b038211838310176200015857808391604095869485528339810103126200015357602062000051826200016e565b916001600160a01b039182916200006991016200016e565b169081156200013b57600080546001600160a01b0319808216851783558651929492939092909182167f8be0079c531659141344cd1fd0a4f28419497f9722a3daafe3b4186f6b6457e08680a3600180556101f4948560075560c860085516918215620000f9575090849291600554161760055543600655428152600460205220555161216a9081620001848239f35b62461bcd60e51b815260206004820152601a60248201527f496e76616c6964207072696365206665656420616464726573730000000000006044820152606490fd5b8351631e4fbdf760e01b815260006004820152602490fd5b600080fd5b634e487b7160e01b600052604160045260246000fd5b51906001600160a01b0382168203620001535756fe608080604052600436101561001d575b50361561001b57600080fd5b005b60003560e01c9081630dd919d2146114f15750806310786deb146114d357806314d0d3cd146114a7578063180459cd1461130e5780631e2495291461125557806324600fc3146110ba578063355eb7fc1461109357806335e99a9d1461106157806337e32d1d146110435780633f32829614610ed857806342f6fb2914610eaf57806349833b1714610deb5780634df97db514610dcc57806350af6d0814610db05780635f39e7f014610d2c57806365a2d70114610d0e5780636dc1da2414610cf05780636f618fe214610c40578063715018a614610be7578063792dc66514610bc95780638c733fdf14610b915780638da5cb5b14610b6857806392cd1ff214610b4c578063a0a8045e14610b31578063a48da6c914610aa8578063a6a8613014610a7a578063a8acc04614610a61578063b63fa86f14610a3d578063b848108a146109c3578063cfb049ef146109a5578063e1f1c4a714610988578063e2c41dbc146104f7578063e57b9d5b14610400578063e6a69ab8146103e1578063ee937e82146103c4578063f2fde38b14610334578063f80a205714610256578063f96d0baa14610237578063f979f2691461021e5763faf7eba6146101e2573861000f565b34610219576020366003190112610219576004356001600160a01b038116810361021957610211602091611f54565b604051908152f35b600080fd5b34610219576020610211610231366115bc565b90611b2b565b346102195760003660031901126102195760206040516305f5e1008152f35b34610219576020366003190112610219576004356001600160a01b0381169081900361021957600060a060405161028c8161161a565b8281528260208201528260408201528260608201528260808201520152600052600360205260c060406000206040516102c48161161a565b81549182825260018101546020830190815260ff6002830154166040840190151581526003830154916060850192835260a06005600486015495608088019687520154950194855260405195865251602086015251151560408501525160608401525160808301525160a0820152f35b34610219576020366003190112610219576004356001600160a01b0381811691829003610219576103636115d2565b81156103ab57600054826bffffffffffffffffffffffff60a01b821617600055167f8be0079c531659141344cd1fd0a4f28419497f9722a3daafe3b4186f6b6457e0600080a3005b604051631e4fbdf760e01b815260006004820152602490fd5b34610219576000366003190112610219576020604051611c208152f35b346102195760003660031901126102195760206040516301e133808152f35b34610219576020366003190112610219576004356001600160a01b0381169081900361021957600060c0604051610436816115fe565b8281528260208201528260408201528260608201528260808201528260a08201520152600052600260205260e06040600020604051610474816115fe565b815491828252600181015460208301908152600282015460408401908152600383015490606085019182526004840154926080860193845260c060ff600660058801549760a08a01988952015416960195151586526040519687525160208701525160408601525160608501525160808401525160a083015251151560c0820152f35b60003660031901126102195761050b611c39565b33600052600260205261052860ff60066040600020015416611bed565b34156109435733600052600360205260ff600260406000200154166108f05733600052600360205260406000206105603482546117e1565b815561056e346009546117e1565b60095580549060019182820190815460405191348352602083015260408201527f7443ec926982faa56fcbb790a54be84e5fa371b9503fa0daa5ba36c6f122627560603392a26040516060810181811067ffffffffffffffff82111761084057604052600281526020810160403682376040516315ab88c960e31b8152602081600481737a250d5630b4cf539739df2c5dacb4c659f2488d5afa908115610856576000916108ae575b50825115610898576001600160a01b031681528151851015610898577318084fba666a33d37592fa2633fd49a74dd93a8860408301526104b042018042116108825791604051928391637ff36ab560e01b8352608483019060006004850152608060248501525180915260a48301939060005b89828210610862575050505060009282913060448401526064830152038134737a250d5630b4cf539739df2c5dacb4c659f2488d5af18015610856576107aa575b50815490541115908161079a575b506106e2578055005b3360005260036020528060406000206002602052604060002060c060ff60066040519361070e856115fe565b80548552868101546020860152600281015460408601526003810154606086015260048101546080860152600581015460a08601520154161515910152600281018260ff1982541617905542600382015501546040519081527f2690b5d1cbd39f0f98b3c8a68037ce919dae4fa96fdab3cdc287a633d393a66260203392a261079633611d23565b8055005b60ff9150600201541615826106d9565b3d806000833e6107ba8183611636565b8101906020818303126102195780519067ffffffffffffffff8211610219570181601f820112156102195780519067ffffffffffffffff8211610840576020808360051b936040519061080f83870183611636565b8152019282010192831161021957602001905b8282106108305750506106cb565b8151815260209182019101610822565b634e487b7160e01b600052604160045260246000fd5b6040513d6000823e3d90fd5b83516001600160a01b03168752602096870196889650909301920161068a565b634e487b7160e01b600052601160045260246000fd5b634e487b7160e01b600052603260045260246000fd5b90506020813d6020116108e8575b816108c960209383611636565b8101031261021957516001600160a01b03811681036102195786610617565b3d91506108bc565b60405162461bcd60e51b815260206004820152602560248201527f43616e6e6f74206465706f736974206166746572207061796d656e7473207374604482015264185c9d195960da1b6064820152608490fd5b60405162461bcd60e51b815260206004820152601760248201527f4d757374206465706f73697420736f6d652066756e64730000000000000000006044820152606490fd5b346102195760003660031901126102195760206040516127108152f35b34610219576000366003190112610219576020600754604051908152f35b34610219576020366003190112610219576004356001600160a01b0381169081900361021957600052600360205260c0604060002080549060018101549060ff60028201541660038201549060056004840154930154936040519586526020860152151560408501526060840152608083015260a0820152f35b34610219576060366003190112610219576020610211604435602435600435611b7c565b34610219576020610211610a74366115bc565b906120c7565b34610219576020366003190112610219576020610211610a9861166f565b610aa3600435611791565b6117c1565b34610219576020366003190112610219576004356001600160a01b038116908190036102195760005260036020526020604060002060405190610aea8261161a565b80549182815260a06005600184015493848785015260ff60028201541615156040850152600381015460608501526004810154608085015201549101526040519110158152f35b3461021957600036600319011261021957602061021161166f565b3461021957600036600319011261021957602060405160128152f35b34610219576000366003190112610219576000546040516001600160a01b039091168152602090f35b34610219576020366003190112610219576020670de0b6b3a7640000610bc0610bb861166f565b6004356117ae565b04604051908152f35b34610219576000366003190112610219576020600854604051908152f35b3461021957600036600319011261021957610c006115d2565b600080546001600160a01b0319811682556001600160a01b03167f8be0079c531659141344cd1fd0a4f28419497f9722a3daafe3b4186f6b6457e08280a3005b34610219576020366003190112610219576004356001600160a01b038116908190036102195760005260026020526020610211604060002060405190610c85826115fe565b805482526001810154918481019283526002820154604082019081526003830154906060830191825260048401549260808101938452610cdf60ff600660058801549760a0850198895201541615158060c0840152611bed565b5194519051915192519351946118f8565b34610219576000366003190112610219576020600954604051908152f35b34610219576000366003190112610219576020600654604051908152f35b34610219576020366003190112610219576004356001600160a01b0381169081900361021957600052600260205260e060406000208054906001810154906002810154600382015460048301549160ff600660058601549501541694604051968752602087015260408601526060850152608084015260a0830152151560c0820152f35b34610219576000366003190112610219576020604051600c8152f35b34610219576020610211610ddf36611596565b949390939291926118f8565b34610219576020366003190112610219576004356001600160a01b03811680820361021957610e18611c39565b600052600360205260036040600020610e3760ff600283015416611c5c565b610e4660048201541515611c9f565b015462278d008101809111610882574210610e6a57610e6490611d23565b60018055005b60405162461bcd60e51b815260206004820152601a60248201527f546f6f206561726c7920666f72206e657874207061796d656e740000000000006044820152606490fd5b34610219576000366003190112610219576005546040516001600160a01b039091168152602090f35b3461021957610f836006610eeb36611596565b90610f0082828587898b9c999a989d9b6118f8565b9760405195610f0e876115fe565b8887526020870194855260408701908152606087019182526080870192835260a0870193845260c08701946001865233600052600260205260406000209751885551600188015551600287015551600386015551600485015551600584015551151591019060ff801983541691151516179055565b600c810290808204600c149015171561088257600560405191610fa58361161a565b60008352602083019084825260408401600081526110056060860191600083526080870193845260a087019460008652336000526003602052604060002097518855516001880155511515600287019060ff801983541691151516179055565b516003850155516004840155519101556040519081527f0512e2ea4790ae5cb1260ba59a21ad4eb7a682e81375238a785fc80e1607c1ba60203392a2005b34610219576000366003190112610219576020600a54604051908152f35b3461021957600c61107a611074366115bc565b906117ae565b0461271090810180911161088257602090604051908152f35b34610219576080366003190112610219576020610211606435604435602435600435611fce565b34610219576000366003190112610219576110d3611c39565b3360005260206002815260ff6006604060002001541661121157336000526003815260ff600260406000200154166111be5733600052600381526040600020805490811561118257600080809381809455611130816009546118eb565b600955335af161113e611ce3565b501561114a5760018055005b6064906040519062461bcd60e51b82526004820152601160248201527015da5d1a191c985dd85b0819985a5b1959607a1b6044820152fd5b60405162461bcd60e51b81526004810184905260146024820152734e6f2066756e647320746f20776974686472617760601b6044820152606490fd5b6084906040519062461bcd60e51b82526004820152602660248201527f43616e6e6f74207769746864726177206166746572207061796d656e747320736044820152651d185c9d195960d21b6064820152fd5b6064906040519062461bcd60e51b82526004820152601e60248201527f506c616e206d75737420626520646561637469766174656420666972737400006044820152fd5b346102195760003660031901126102195733600052600260205261128360ff60066040600020015416611bed565b33600052600360205260ff600260406000200154166112b857336000908152600260205260409020600601805460ff19169055005b60405162461bcd60e51b815260206004820152602860248201527f43616e6e6f742064656163746976617465206166746572207061796d656e7473604482015267081cdd185c9d195960c21b6064820152608490fd5b346102195761131c36611596565b949390929194336000526020936002855261134160ff60066040600020015416611bed565b336000526003855260ff600260406000200154166114505791818361137060069487968b6113f199878d6118f8565b986040519561137e876115fe565b89875288870194855260408701908152606087019182526080870192835260a0870193845260c0870194600186523360005260028a5260406000209751885551600188015551600287015551600386015551600485015551600584015551151591019060ff801983541691151516179055565b6003815282600160406000200155600c820291808304600c1490151715610882577f7a5814448ce223a3b3de9ed43f64fd31cd7e13caabaeb2b71ba8250af7bf81219133600052600382526004604060002001556040519283523392a2005b60405162461bcd60e51b815260048101869052602960248201527f43616e6e6f742075706461746520706c616e206166746572207061796d656e746044820152681cc81cdd185c9d195960ba1b6064820152608490fd5b346102195760203660031901126102195760043560005260046020526020604060002054604051908152f35b3461021957600036600319011261021957602060405162278d008152f35b3461021957600036600319011261021957600654611c208101809111610882574310611554577f61c2885fb2a4a6f1a4de4fb596711f648003b9f5564c348504b049235272bb23604061154261166f565b436006558151904382526020820152a1005b62461bcd60e51b815260206004820152601e60248201527f546f6f206561726c7920746f20757064617465207072696365206665656400006044820152606490fd5b60c090600319011261021957600435906024359060443590606435906084359060a43590565b6040906003190112610219576004359060243590565b6000546001600160a01b031633036115e657565b60405163118cdaa760e01b8152336004820152602490fd5b60e0810190811067ffffffffffffffff82111761084057604052565b60c0810190811067ffffffffffffffff82111761084057604052565b90601f8019910116810190811067ffffffffffffffff82111761084057604052565b519069ffffffffffffffffffff8216820361021957565b600554604051633fabe5a360e21b81529060a090829060049082906001600160a01b03165afa801561085657600091829161173a575b5060008213156116f557156116b75790565b60405162461bcd60e51b8152602060048201526016602482015275141c9a58d94819995959081b9bdd081d5c19185d195960521b6044820152606490fd5b60405162461bcd60e51b815260206004820152601960248201527f496e76616c6964207072696365206665656420616e73776572000000000000006044820152606490fd5b91905060a0823d8211611789575b8161175560a09383611636565b81010312611786575061176781611658565b50602081015161177e608060608401519301611658565b5090386116a5565b80fd5b3d9150611748565b90670de0b6b3a76400009182810292818404149015171561088257565b8181029291811591840414171561088257565b81156117cb570490565b634e487b7160e01b600052601260045260246000fd5b9190820180921161088257565b156117f557565b60405162461bcd60e51b815260206004820152602660248201527f4c69666520657870656374616e6379206d75737420626520677265617465722060448201526507468616e20360d41b6064820152608490fd5b1561185057565b60405162461bcd60e51b815260206004820152601d60248201527f5969656c6420726174652063616e6e6f742065786365656420313030250000006044820152606490fd5b1561189c57565b60405162461bcd60e51b815260206004820152602160248201527f496e666c6174696f6e20726174652063616e6e6f7420657863656564203130306044820152602560f81b6064820152608490fd5b9190820391821161088257565b9294919390946119098415156117ee565b8515611ac75780851115611a6a576119519061194b6127109761192e89861115611849565b61193a89871115611895565b610aa361194561166f565b91611791565b956118eb565b9180860180871161088257828701808811610882578782029180830489149015171561088257611980916117c1565b91600091036119be57509061199491611b2b565b91600c810290808204600c1490151715610882576119ba926119b5916117ae565b6117ae565b0490565b93916119cd6119d49183611b2b565b9382611b2b565b9081860390868211611a5657860391868311611a565786820291820487149087141715611a425790611a05916117c1565b92600c820291808304600c1490151715611a2e5750916119b5611a299285946117ae565b040490565b634e487b7160e01b81526011600452602490fd5b634e487b7160e01b85526011600452602485fd5b634e487b7160e01b86526011600452602486fd5b60405162461bcd60e51b815260206004820152602f60248201527f5265746972656d656e7420616765206d7573742062652067726561746572207460448201526e68616e2063757272656e742061676560881b6064820152608490fd5b60405162461bcd60e51b815260206004820152602760248201527f4d6f6e74686c79207370656e64696e67206d75737420626520677265617465726044820152660207468616e20360cc1b6064820152608490fd5b60001981146108825760010190565b91908015611b745760018114611b715791612710926000915b818310611b5057505050565b909193612710611b6383611b6a936117ae565b0494611b1c565b9190611b44565b50565b506127109150565b90918215611be7579161271092600c600092048401908185115b818410611bae5750505050612710916119ba916117ae565b909192946127108102908082046127101490151715610882578161088257611bd984611bdf926117c1565b95611b1c565b929190611b96565b50905090565b15611bf457565b60405162461bcd60e51b815260206004820152601f60248201527f4e6f20616374697665207265746972656d656e7420706c616e20666f756e64006044820152606490fd5b600260015414611c4a576002600155565b604051633ee5aeb560e01b8152600490fd5b15611c6357565b60405162461bcd60e51b815260206004820152601460248201527314185e5b595b9d1cc81b9bdd081cdd185c9d195960621b6044820152606490fd5b15611ca657565b60405162461bcd60e51b81526020600482015260156024820152744e6f207061796d656e74732072656d61696e696e6760581b6044820152606490fd5b3d15611d1e573d9067ffffffffffffffff82116108405760405191611d12601f8201601f191660200184611636565b82523d6000602084013e565b606090565b60018060a01b03811690600090828252602090600382526040908184209060028452828520948351611d54816115fe565b8654815260c060ff600660018a0154998985019a8b526002810154898601526003810154606086015260048101546080860152600581015460a08601520154161515910152611da960ff600285015416611c5c565b6004830191611dcb835497611dbf891515611c9f565b51610aa361194561166f565b938054976005820198895490611de182826118eb565b8811611f40575b508615611efc5786611df9916117e1565b89556000198101908111611ee857858493849384938855600342910155611e2282600a546117e1565b600a555af1611e2f611ce3565b5015611ea4577f49d60844462cb0f82563ebff2fc4c84379ceeb1fce0194c88f01a0a53468cbe1838792549381519081528487820152a215611e72575b50505050565b7fd083bc3caf9b7a542e44da341b42cf5f7327d341b62a461623c5b4a59cb95d0092549051908152a238808080611e6c565b825162461bcd60e51b815260048101859052601760248201527f5061796d656e74207472616e73666572206661696c65640000000000000000006044820152606490fd5b634e487b7160e01b84526011600452602484fd5b875162461bcd60e51b8152600481018a9052601e60248201527f4e6f2066756e647320617661696c61626c6520666f72207061796d656e7400006044820152606490fd5b81975090611f4d916118eb565b9538611de8565b60018060a01b031660005260036020526040600020604051611f758161161a565b81549081815260a0600560018501549485602085015260ff600282015416151560408501526003810154606085015260048101546080850152015491015281811015611fc757611fc4916118eb565b90565b5050600090565b91821561207157611fff821593611fe585156117ee565b61193a612710611ff781861115611849565b871115611895565b92600c8302928304600c14171561088257670de0b6b3a7640000936000918181111561206a5761202f92506118eb565b801561205c5791610aa36120549261204e600c6119ba960491826120c7565b926117ae565b61107461166f565b50612054906119ba926117c1565b505061202f565b60405162461bcd60e51b815260206004820152602860248201527f496e766573746d656e7420616d6f756e74206d75737420626520677265617465604482015267072207468616e20360c41b6064820152608490fd5b90811561211d5761271082810191828211610882576001835b8282106121075750508082029182040361088257611fc492612101916117c1565b906118eb565b909383611b6383612117936117ae565b906120e0565b61271080820292508115918304141715610882579056fea264697066735822122047be37d4a0efc73bf08ca19d0c3548a264d09634f918f84d09b72de64fe39eb764736f6c63430008140033","opcodes":"PUSH1 0x80 CALLVALUE PUSH3 0x153 JUMPI PUSH3 0x22EE SWAP1 PUSH1 0x1F CODESIZE DUP4 SWAP1 SUB SWAP1 DUP2 ADD PUSH1 0x1F NOT AND DUP3 ADD SWAP1 PUSH1 0x1 PUSH1 0x1 PUSH1 0x40 SHL SUB DUP3 GT DUP4 DUP4 LT OR PUSH3 0x158 JUMPI DUP1 DUP4 SWAP2 PUSH1 0x40 SWAP6 DUP7 SWAP5 DUP6 MSTORE DUP4 CODECOPY DUP2 ADD SUB SLT PUSH3 0x153 JUMPI PUSH1 0x20 PUSH3 0x51 DUP3 PUSH3 0x16E JUMP JUMPDEST SWAP2 PUSH1 0x1 PUSH1 0x1 PUSH1 0xA0 SHL SUB SWAP2 DUP3 SWAP2 PUSH3 0x69 SWAP2 ADD PUSH3 0x16E JUMP JUMPDEST AND SWAP1 DUP2 ISZERO PUSH3 0x13B JUMPI PUSH1 0x0 DUP1 SLOAD PUSH1 0x1 PUSH1 0x1 PUSH1 0xA0 SHL SUB NOT DUP1 DUP3 AND DUP6 OR DUP4 SSTORE DUP7 MLOAD SWAP3 SWAP5 SWAP3 SWAP4 SWAP1 SWAP3 SWAP1 SWAP2 DUP3 AND PUSH32 0x8BE0079C531659141344CD1FD0A4F28419497F9722A3DAAFE3B4186F6B6457E0 DUP7 DUP1 LOG3 PUSH1 0x1 DUP1 SSTORE PUSH2 0x1F4 SWAP5 DUP6 PUSH1 0x7 SSTORE PUSH1 0xC8 PUSH1 0x8 SSTORE AND SWAP2 DUP3 ISZERO PUSH3 0xF9 JUMPI POP SWAP1 DUP5 SWAP3 SWAP2 PUSH1 0x5 SLOAD AND OR PUSH1 0x5 SSTORE NUMBER PUSH1 0x6 SSTORE TIMESTAMP DUP2 MSTORE PUSH1 0x4 PUSH1 0x20 MSTORE KECCAK256 SSTORE MLOAD PUSH2 0x216A SWAP1 DUP2 PUSH3 0x184 DUP3 CODECOPY RETURN JUMPDEST PUSH3 0x461BCD PUSH1 0xE5 SHL DUP2 MSTORE PUSH1 0x20 PUSH1 0x4 DUP3 ADD MSTORE PUSH1 0x1A PUSH1 0x24 DUP3 ADD MSTORE PUSH32 0x496E76616C696420707269636520666565642061646472657373000000000000 PUSH1 0x44 DUP3 ADD MSTORE PUSH1 0x64 SWAP1 REVERT JUMPDEST DUP4 MLOAD PUSH4 0x1E4FBDF7 PUSH1 0xE0 SHL DUP2 MSTORE PUSH1 0x0 PUSH1 0x4 DUP3 ADD MSTORE PUSH1 0x24 SWAP1 REVERT JUMPDEST PUSH1 0x0 DUP1 REVERT JUMPDEST PUSH4 0x4E487B71 PUSH1 0xE0 SHL PUSH1 0x0 MSTORE PUSH1 0x41 PUSH1 0x4 MSTORE PUSH1 0x24 PUSH1 0x0 REVERT JUMPDEST MLOAD SWAP1 PUSH1 0x1 PUSH1 0x1 PUSH1 0xA0 SHL SUB DUP3 AND DUP3 SUB PUSH3 0x153 JUMPI JUMP INVALID PUSH1 0x80 DUP1 PUSH1 0x40 MSTORE PUSH1 0x4 CALLDATASIZE LT ISZERO PUSH2 0x1D JUMPI JUMPDEST POP CALLDATASIZE ISZERO PUSH2 0x1B JUMPI PUSH1 0x0 DUP1 REVERT JUMPDEST STOP JUMPDEST PUSH1 0x0 CALLDATALOAD PUSH1 0xE0 SHR SWAP1 DUP2 PUSH4 0xDD919D2 EQ PUSH2 0x14F1 JUMPI POP DUP1 PUSH4 0x10786DEB EQ PUSH2 0x14D3 JUMPI DUP1 PUSH4 0x14D0D3CD EQ PUSH2 0x14A7 JUMPI DUP1 PUSH4 0x180459CD EQ PUSH2 0x130E JUMPI DUP1 PUSH4 0x1E249529 EQ PUSH2 0x1255 JUMPI DUP1 PUSH4 0x24600FC3 EQ PUSH2 0x10BA JUMPI DUP1 PUSH4 0x355EB7FC EQ PUSH2 0x1093 JUMPI DUP1 PUSH4 0x35E99A9D EQ PUSH2 0x1061 JUMPI DUP1 PUSH4 0x37E32D1D EQ PUSH2 0x1043 JUMPI DUP1 PUSH4 0x3F328296 EQ PUSH2 0xED8 JUMPI DUP1 PUSH4 0x42F6FB29 EQ PUSH2 0xEAF JUMPI DUP1 PUSH4 0x49833B17 EQ PUSH2 0xDEB JUMPI DUP1 PUSH4 0x4DF97DB5 EQ PUSH2 0xDCC JUMPI DUP1 PUSH4 0x50AF6D08 EQ PUSH2 0xDB0 JUMPI DUP1 PUSH4 0x5F39E7F0 EQ PUSH2 0xD2C JUMPI DUP1 PUSH4 0x65A2D701 EQ PUSH2 0xD0E JUMPI DUP1 PUSH4 0x6DC1DA24 EQ PUSH2 0xCF0 JUMPI DUP1 PUSH4 0x6F618FE2 EQ PUSH2 0xC40 JUMPI DUP1 PUSH4 0x715018A6 EQ PUSH2 0xBE7 JUMPI DUP1 PUSH4 0x792DC665 EQ PUSH2 0xBC9 JUMPI DUP1 PUSH4 0x8C733FDF EQ PUSH2 0xB91 JUMPI DUP1 PUSH4 0x8DA5CB5B EQ PUSH2 0xB68 JUMPI DUP1 PUSH4 0x92CD1FF2 EQ PUSH2 0xB4C JUMPI DUP1 PUSH4 0xA0A8045E EQ PUSH2 0xB31 JUMPI DUP1 PUSH4 0xA48DA6C9 EQ PUSH2 0xAA8 JUMPI DUP1 PUSH4 0xA6A86130 EQ PUSH2 0xA7A JUMPI DUP1 PUSH4 0xA8ACC046 EQ PUSH2 0xA61 JUMPI DUP1 PUSH4 0xB63FA86F EQ PUSH2 0xA3D JUMPI DUP1 PUSH4 0xB848108A EQ PUSH2 0x9C3 JUMPI DUP1 PUSH4 0xCFB049EF EQ PUSH2 0x9A5 JUMPI DUP1 PUSH4 0xE1F1C4A7 EQ PUSH2 0x988 JUMPI DUP1 PUSH4 0xE2C41DBC EQ PUSH2 0x4F7 JUMPI DUP1 PUSH4 0xE57B9D5B EQ PUSH2 0x400 JUMPI DUP1 PUSH4 0xE6A69AB8 EQ PUSH2 0x3E1 JUMPI DUP1 PUSH4 0xEE937E82 EQ PUSH2 0x3C4 JUMPI DUP1 PUSH4 0xF2FDE38B EQ PUSH2 0x334 JUMPI DUP1 PUSH4 0xF80A2057 EQ PUSH2 0x256 JUMPI DUP1 PUSH4 0xF96D0BAA EQ PUSH2 0x237 JUMPI DUP1 PUSH4 0xF979F269 EQ PUSH2 0x21E JUMPI PUSH4 0xFAF7EBA6 EQ PUSH2 0x1E2 JUMPI CODESIZE PUSH2 0xF JUMP JUMPDEST CALLVALUE PUSH2 0x219 JUMPI PUSH1 0x20 CALLDATASIZE PUSH1 0x3 NOT ADD SLT PUSH2 0x219 JUMPI PUSH1 0x4 CALLDATALOAD PUSH1 0x1 PUSH1 0x1 PUSH1 0xA0 SHL SUB DUP2 AND DUP2 SUB PUSH2 0x219 JUMPI PUSH2 0x211 PUSH1 0x20 SWAP2 PUSH2 0x1F54 JUMP JUMPDEST PUSH1 0x40 MLOAD SWAP1 DUP2 MSTORE RETURN JUMPDEST PUSH1 0x0 DUP1 REVERT JUMPDEST CALLVALUE PUSH2 0x219 JUMPI PUSH1 0x20 PUSH2 0x211 PUSH2 0x231 CALLDATASIZE PUSH2 0x15BC JUMP JUMPDEST SWAP1 PUSH2 0x1B2B JUMP JUMPDEST CALLVALUE PUSH2 0x219 JUMPI PUSH1 0x0 CALLDATASIZE PUSH1 0x3 NOT ADD SLT PUSH2 0x219 JUMPI PUSH1 0x20 PUSH1 0x40 MLOAD PUSH4 0x5F5E100 DUP2 MSTORE RETURN JUMPDEST CALLVALUE PUSH2 0x219 JUMPI PUSH1 0x20 CALLDATASIZE PUSH1 0x3 NOT ADD SLT PUSH2 0x219 JUMPI PUSH1 0x4 CALLDATALOAD PUSH1 0x1 PUSH1 0x1 PUSH1 0xA0 SHL SUB DUP2 AND SWAP1 DUP2 SWAP1 SUB PUSH2 0x219 JUMPI PUSH1 0x0 PUSH1 0xA0 PUSH1 0x40 MLOAD PUSH2 0x28C DUP2 PUSH2 0x161A JUMP JUMPDEST DUP3 DUP2 MSTORE DUP3 PUSH1 0x20 DUP3 ADD MSTORE DUP3 PUSH1 0x40 DUP3 ADD MSTORE DUP3 PUSH1 0x60 DUP3 ADD MSTORE DUP3 PUSH1 0x80 DUP3 ADD MSTORE ADD MSTORE PUSH1 0x0 MSTORE PUSH1 0x3 PUSH1 0x20 MSTORE PUSH1 0xC0 PUSH1 0x40 PUSH1 0x0 KECCAK256 PUSH1 0x40 MLOAD PUSH2 0x2C4 DUP2 PUSH2 0x161A JUMP JUMPDEST DUP2 SLOAD SWAP2 DUP3 DUP3 MSTORE PUSH1 0x1 DUP2 ADD SLOAD PUSH1 0x20 DUP4 ADD SWAP1 DUP2 MSTORE PUSH1 0xFF PUSH1 0x2 DUP4 ADD SLOAD AND PUSH1 0x40 DUP5 ADD SWAP1 ISZERO ISZERO DUP2 MSTORE PUSH1 0x3 DUP4 ADD SLOAD SWAP2 PUSH1 0x60 DUP6 ADD SWAP3 DUP4 MSTORE PUSH1 0xA0 PUSH1 0x5 PUSH1 0x4 DUP7 ADD SLOAD SWAP6 PUSH1 0x80 DUP9 ADD SWAP7 DUP8 MSTORE ADD SLOAD SWAP6 ADD SWAP5 DUP6 MSTORE PUSH1 0x40 MLOAD SWAP6 DUP7 MSTORE MLOAD PUSH1 0x20 DUP7 ADD MSTORE MLOAD ISZERO ISZERO PUSH1 0x40 DUP6 ADD MSTORE MLOAD PUSH1 0x60 DUP5 ADD MSTORE MLOAD PUSH1 0x80 DUP4 ADD MSTORE MLOAD PUSH1 0xA0 DUP3 ADD MSTORE RETURN JUMPDEST CALLVALUE PUSH2 0x219 JUMPI PUSH1 0x20 CALLDATASIZE PUSH1 0x3 NOT ADD SLT PUSH2 0x219 JUMPI PUSH1 0x4 CALLDATALOAD PUSH1 0x1 PUSH1 0x1 PUSH1 0xA0 SHL SUB DUP2 DUP2 AND SWAP2 DUP3 SWAP1 SUB PUSH2 0x219 JUMPI PUSH2 0x363 PUSH2 0x15D2 JUMP JUMPDEST DUP2 ISZERO PUSH2 0x3AB JUMPI PUSH1 0x0 SLOAD DUP3 PUSH12 0xFFFFFFFFFFFFFFFFFFFFFFFF PUSH1 0xA0 SHL DUP3 AND OR PUSH1 0x0 SSTORE AND PUSH32 0x8BE0079C531659141344CD1FD0A4F28419497F9722A3DAAFE3B4186F6B6457E0 PUSH1 0x0 DUP1 LOG3 STOP JUMPDEST PUSH1 0x40 MLOAD PUSH4 0x1E4FBDF7 PUSH1 0xE0 SHL DUP2 MSTORE PUSH1 0x0 PUSH1 0x4 DUP3 ADD MSTORE PUSH1 0x24 SWAP1 REVERT JUMPDEST CALLVALUE PUSH2 0x219 JUMPI PUSH1 0x0 CALLDATASIZE PUSH1 0x3 NOT ADD SLT PUSH2 0x219 JUMPI PUSH1 0x20 PUSH1 0x40 MLOAD PUSH2 0x1C20 DUP2 MSTORE RETURN JUMPDEST CALLVALUE PUSH2 0x219 JUMPI PUSH1 0x0 CALLDATASIZE PUSH1 0x3 NOT ADD SLT PUSH2 0x219 JUMPI PUSH1 0x20 PUSH1 0x40 MLOAD PUSH4 0x1E13380 DUP2 MSTORE RETURN JUMPDEST CALLVALUE PUSH2 0x219 JUMPI PUSH1 0x20 CALLDATASIZE PUSH1 0x3 NOT ADD SLT PUSH2 0x219 JUMPI PUSH1 0x4 CALLDATALOAD PUSH1 0x1 PUSH1 0x1 PUSH1 0xA0 SHL SUB DUP2 AND SWAP1 DUP2 SWAP1 SUB PUSH2 0x219 JUMPI PUSH1 0x0 PUSH1 0xC0 PUSH1 0x40 MLOAD PUSH2 0x436 DUP2 PUSH2 0x15FE JUMP JUMPDEST DUP3 DUP2 MSTORE DUP3 PUSH1 0x20 DUP3 ADD MSTORE DUP3 PUSH1 0x40 DUP3 ADD MSTORE DUP3 PUSH1 0x60 DUP3 ADD MSTORE DUP3 PUSH1 0x80 DUP3 ADD MSTORE DUP3 PUSH1 0xA0 DUP3 ADD MSTORE ADD MSTORE PUSH1 0x0 MSTORE PUSH1 0x2 PUSH1 0x20 MSTORE PUSH1 0xE0 PUSH1 0x40 PUSH1 0x0 KECCAK256 PUSH1 0x40 MLOAD PUSH2 0x474 DUP2 PUSH2 0x15FE JUMP JUMPDEST DUP2 SLOAD SWAP2 DUP3 DUP3 MSTORE PUSH1 0x1 DUP2 ADD SLOAD PUSH1 0x20 DUP4 ADD SWAP1 DUP2 MSTORE PUSH1 0x2 DUP3 ADD SLOAD PUSH1 0x40 DUP5 ADD SWAP1 DUP2 MSTORE PUSH1 0x3 DUP4 ADD SLOAD SWAP1 PUSH1 0x60 DUP6 ADD SWAP2 DUP3 MSTORE PUSH1 0x4 DUP5 ADD SLOAD SWAP3 PUSH1 0x80 DUP7 ADD SWAP4 DUP5 MSTORE PUSH1 0xC0 PUSH1 0xFF PUSH1 0x6 PUSH1 0x5 DUP9 ADD SLOAD SWAP8 PUSH1 0xA0 DUP11 ADD SWAP9 DUP10 MSTORE ADD SLOAD AND SWAP7 ADD SWAP6 ISZERO ISZERO DUP7 MSTORE PUSH1 0x40 MLOAD SWAP7 DUP8 MSTORE MLOAD PUSH1 0x20 DUP8 ADD MSTORE MLOAD PUSH1 0x40 DUP7 ADD MSTORE MLOAD PUSH1 0x60 DUP6 ADD MSTORE MLOAD PUSH1 0x80 DUP5 ADD MSTORE MLOAD PUSH1 0xA0 DUP4 ADD MSTORE MLOAD ISZERO ISZERO PUSH1 0xC0 DUP3 ADD MSTORE RETURN JUMPDEST PUSH1 0x0 CALLDATASIZE PUSH1 0x3 NOT ADD SLT PUSH2 0x219 JUMPI PUSH2 0x50B PUSH2 0x1C39 JUMP JUMPDEST CALLER PUSH1 0x0 MSTORE PUSH1 0x2 PUSH1 0x20 MSTORE PUSH2 0x528 PUSH1 0xFF PUSH1 0x6 PUSH1 0x40 PUSH1 0x0 KECCAK256 ADD SLOAD AND PUSH2 0x1BED JUMP JUMPDEST CALLVALUE ISZERO PUSH2 0x943 JUMPI CALLER PUSH1 0x0 MSTORE PUSH1 0x3 PUSH1 0x20 MSTORE PUSH1 0xFF PUSH1 0x2 PUSH1 0x40 PUSH1 0x0 KECCAK256 ADD SLOAD AND PUSH2 0x8F0 JUMPI CALLER PUSH1 0x0 MSTORE PUSH1 0x3 PUSH1 0x20 MSTORE PUSH1 0x40 PUSH1 0x0 KECCAK256 PUSH2 0x560 CALLVALUE DUP3 SLOAD PUSH2 0x17E1 JUMP JUMPDEST DUP2 SSTORE PUSH2 0x56E CALLVALUE PUSH1 0x9 SLOAD PUSH2 0x17E1 JUMP JUMPDEST PUSH1 0x9 SSTORE DUP1 SLOAD SWAP1 PUSH1 0x1 SWAP2 DUP3 DUP3 ADD SWAP1 DUP2 SLOAD PUSH1 0x40 MLOAD SWAP2 CALLVALUE DUP4 MSTORE PUSH1 0x20 DUP4 ADD MSTORE PUSH1 0x40 DUP3 ADD MSTORE PUSH32 0x7443EC926982FAA56FCBB790A54BE84E5FA371B9503FA0DAA5BA36C6F1226275 PUSH1 0x60 CALLER SWAP3 LOG2 PUSH1 0x40 MLOAD PUSH1 0x60 DUP2 ADD DUP2 DUP2 LT PUSH8 0xFFFFFFFFFFFFFFFF DUP3 GT OR PUSH2 0x840 JUMPI PUSH1 0x40 MSTORE PUSH1 0x2 DUP2 MSTORE PUSH1 0x20 DUP2 ADD PUSH1 0x40 CALLDATASIZE DUP3 CALLDATACOPY PUSH1 0x40 MLOAD PUSH4 0x15AB88C9 PUSH1 0xE3 SHL DUP2 MSTORE PUSH1 0x20 DUP2 PUSH1 0x4 DUP2 PUSH20 0x7A250D5630B4CF539739DF2C5DACB4C659F2488D GAS STATICCALL SWAP1 DUP2 ISZERO PUSH2 0x856 JUMPI PUSH1 0x0 SWAP2 PUSH2 0x8AE JUMPI JUMPDEST POP DUP3 MLOAD ISZERO PUSH2 0x898 JUMPI PUSH1 0x1 PUSH1 0x1 PUSH1 0xA0 SHL SUB AND DUP2 MSTORE DUP2 MLOAD DUP6 LT ISZERO PUSH2 0x898 JUMPI PUSH20 0x18084FBA666A33D37592FA2633FD49A74DD93A88 PUSH1 0x40 DUP4 ADD MSTORE PUSH2 0x4B0 TIMESTAMP ADD DUP1 TIMESTAMP GT PUSH2 0x882 JUMPI SWAP2 PUSH1 0x40 MLOAD SWAP3 DUP4 SWAP2 PUSH4 0x7FF36AB5 PUSH1 0xE0 SHL DUP4 MSTORE PUSH1 0x84 DUP4 ADD SWAP1 PUSH1 0x0 PUSH1 0x4 DUP6 ADD MSTORE PUSH1 0x80 PUSH1 0x24 DUP6 ADD MSTORE MLOAD DUP1 SWAP2 MSTORE PUSH1 0xA4 DUP4 ADD SWAP4 SWAP1 PUSH1 0x0 JUMPDEST DUP10 DUP3 DUP3 LT PUSH2 0x862 JUMPI POP POP POP POP PUSH1 0x0 SWAP3 DUP3 SWAP2 ADDRESS PUSH1 0x44 DUP5 ADD MSTORE PUSH1 0x64 DUP4 ADD MSTORE SUB DUP2 CALLVALUE PUSH20 0x7A250D5630B4CF539739DF2C5DACB4C659F2488D GAS CALL DUP1 ISZERO PUSH2 0x856 JUMPI PUSH2 0x7AA JUMPI JUMPDEST POP DUP2 SLOAD SWAP1 SLOAD GT ISZERO SWAP1 DUP2 PUSH2 0x79A JUMPI JUMPDEST POP PUSH2 0x6E2 JUMPI DUP1 SSTORE STOP JUMPDEST CALLER PUSH1 0x0 MSTORE PUSH1 0x3 PUSH1 0x20 MSTORE DUP1 PUSH1 0x40 PUSH1 0x0 KECCAK256 PUSH1 0x2 PUSH1 0x20 MSTORE PUSH1 0x40 PUSH1 0x0 KECCAK256 PUSH1 0xC0 PUSH1 0xFF PUSH1 0x6 PUSH1 0x40 MLOAD SWAP4 PUSH2 0x70E DUP6 PUSH2 0x15FE JUMP JUMPDEST DUP1 SLOAD DUP6 MSTORE DUP7 DUP2 ADD SLOAD PUSH1 0x20 DUP7 ADD MSTORE PUSH1 0x2 DUP2 ADD SLOAD PUSH1 0x40 DUP7 ADD MSTORE PUSH1 0x3 DUP2 ADD SLOAD PUSH1 0x60 DUP7 ADD MSTORE PUSH1 0x4 DUP2 ADD SLOAD PUSH1 0x80 DUP7 ADD MSTORE PUSH1 0x5 DUP2 ADD SLOAD PUSH1 0xA0 DUP7 ADD MSTORE ADD SLOAD AND ISZERO ISZERO SWAP2 ADD MSTORE PUSH1 0x2 DUP2 ADD DUP3 PUSH1 0xFF NOT DUP3 SLOAD AND OR SWAP1 SSTORE TIMESTAMP PUSH1 0x3 DUP3 ADD SSTORE ADD SLOAD PUSH1 0x40 MLOAD SWAP1 DUP2 MSTORE PUSH32 0x2690B5D1CBD39F0F98B3C8A68037CE919DAE4FA96FDAB3CDC287A633D393A662 PUSH1 0x20 CALLER SWAP3 LOG2 PUSH2 0x796 CALLER PUSH2 0x1D23 JUMP JUMPDEST DUP1 SSTORE STOP JUMPDEST PUSH1 0xFF SWAP2 POP PUSH1 0x2 ADD SLOAD AND ISZERO DUP3 PUSH2 0x6D9 JUMP JUMPDEST RETURNDATASIZE DUP1 PUSH1 0x0 DUP4 RETURNDATACOPY PUSH2 0x7BA DUP2 DUP4 PUSH2 0x1636 JUMP JUMPDEST DUP2 ADD SWAP1 PUSH1 0x20 DUP2 DUP4 SUB SLT PUSH2 0x219 JUMPI DUP1 MLOAD SWAP1 PUSH8 0xFFFFFFFFFFFFFFFF DUP3 GT PUSH2 0x219 JUMPI ADD DUP2 PUSH1 0x1F DUP3 ADD SLT ISZERO PUSH2 0x219 JUMPI DUP1 MLOAD SWAP1 PUSH8 0xFFFFFFFFFFFFFFFF DUP3 GT PUSH2 0x840 JUMPI PUSH1 0x20 DUP1 DUP4 PUSH1 0x5 SHL SWAP4 PUSH1 0x40 MLOAD SWAP1 PUSH2 0x80F DUP4 DUP8 ADD DUP4 PUSH2 0x1636 JUMP JUMPDEST DUP2 MSTORE ADD SWAP3 DUP3 ADD ADD SWAP3 DUP4 GT PUSH2 0x219 JUMPI PUSH1 0x20 ADD SWAP1 JUMPDEST DUP3 DUP3 LT PUSH2 0x830 JUMPI POP POP PUSH2 0x6CB JUMP JUMPDEST DUP2 MLOAD DUP2 MSTORE PUSH1 0x20 SWAP2 DUP3 ADD SWAP2 ADD PUSH2 0x822 JUMP JUMPDEST PUSH4 0x4E487B71 PUSH1 0xE0 SHL PUSH1 0x0 MSTORE PUSH1 0x41 PUSH1 0x4 MSTORE PUSH1 0x24 PUSH1 0x0 REVERT JUMPDEST PUSH1 0x40 MLOAD RETURNDATASIZE PUSH1 0x0 DUP3 RETURNDATACOPY RETURNDATASIZE SWAP1 REVERT JUMPDEST DUP4 MLOAD PUSH1 0x1 PUSH1 0x1 PUSH1 0xA0 SHL SUB AND DUP8 MSTORE PUSH1 0x20 SWAP7 DUP8 ADD SWAP7 DUP9 SWAP7 POP SWAP1 SWAP4 ADD SWAP3 ADD PUSH2 0x68A JUMP JUMPDEST PUSH4 0x4E487B71 PUSH1 0xE0 SHL PUSH1 0x0 MSTORE PUSH1 0x11 PUSH1 0x4 MSTORE PUSH1 0x24 PUSH1 0x0 REVERT JUMPDEST PUSH4 0x4E487B71 PUSH1 0xE0 SHL PUSH1 0x0 MSTORE PUSH1 0x32 PUSH1 0x4 MSTORE PUSH1 0x24 PUSH1 0x0 REVERT JUMPDEST SWAP1 POP PUSH1 0x20 DUP2 RETURNDATASIZE PUSH1 0x20 GT PUSH2 0x8E8 JUMPI JUMPDEST DUP2 PUSH2 0x8C9 PUSH1 0x20 SWAP4 DUP4 PUSH2 0x1636 JUMP JUMPDEST DUP2 ADD SUB SLT PUSH2 0x219 JUMPI MLOAD PUSH1 0x1 PUSH1 0x1 PUSH1 0xA0 SHL SUB DUP2 AND DUP2 SUB PUSH2 0x219 JUMPI DUP7 PUSH2 0x617 JUMP JUMPDEST RETURNDATASIZE SWAP2 POP PUSH2 0x8BC JUMP JUMPDEST PUSH1 0x40 MLOAD PUSH3 0x461BCD PUSH1 0xE5 SHL DUP2 MSTORE PUSH1 0x20 PUSH1 0x4 DUP3 ADD MSTORE PUSH1 0x25 PUSH1 0x24 DUP3 ADD MSTORE PUSH32 0x43616E6E6F74206465706F736974206166746572207061796D656E7473207374 PUSH1 0x44 DUP3 ADD MSTORE PUSH5 0x185C9D1959 PUSH1 0xDA SHL PUSH1 0x64 DUP3 ADD MSTORE PUSH1 0x84 SWAP1 REVERT JUMPDEST PUSH1 0x40 MLOAD PUSH3 0x461BCD PUSH1 0xE5 SHL DUP2 MSTORE PUSH1 0x20 PUSH1 0x4 DUP3 ADD MSTORE PUSH1 0x17 PUSH1 0x24 DUP3 ADD MSTORE PUSH32 0x4D757374206465706F73697420736F6D652066756E6473000000000000000000 PUSH1 0x44 DUP3 ADD MSTORE PUSH1 0x64 SWAP1 REVERT JUMPDEST CALLVALUE PUSH2 0x219 JUMPI PUSH1 0x0 CALLDATASIZE PUSH1 0x3 NOT ADD SLT PUSH2 0x219 JUMPI PUSH1 0x20 PUSH1 0x40 MLOAD PUSH2 0x2710 DUP2 MSTORE RETURN JUMPDEST CALLVALUE PUSH2 0x219 JUMPI PUSH1 0x0 CALLDATASIZE PUSH1 0x3 NOT ADD SLT PUSH2 0x219 JUMPI PUSH1 0x20 PUSH1 0x7 SLOAD PUSH1 0x40 MLOAD SWAP1 DUP2 MSTORE RETURN JUMPDEST CALLVALUE PUSH2 0x219 JUMPI PUSH1 0x20 CALLDATASIZE PUSH1 0x3 NOT ADD SLT PUSH2 0x219 JUMPI PUSH1 0x4 CALLDATALOAD PUSH1 0x1 PUSH1 0x1 PUSH1 0xA0 SHL SUB DUP2 AND SWAP1 DUP2 SWAP1 SUB PUSH2 0x219 JUMPI PUSH1 0x0 MSTORE PUSH1 0x3 PUSH1 0x20 MSTORE PUSH1 0xC0 PUSH1 0x40 PUSH1 0x0 KECCAK256 DUP1 SLOAD SWAP1 PUSH1 0x1 DUP2 ADD SLOAD SWAP1 PUSH1 0xFF PUSH1 0x2 DUP3 ADD SLOAD AND PUSH1 0x3 DUP3 ADD SLOAD SWAP1 PUSH1 0x5 PUSH1 0x4 DUP5 ADD SLOAD SWAP4 ADD SLOAD SWAP4 PUSH1 0x40 MLOAD SWAP6 DUP7 MSTORE PUSH1 0x20 DUP7 ADD MSTORE ISZERO ISZERO PUSH1 0x40 DUP6 ADD MSTORE PUSH1 0x60 DUP5 ADD MSTORE PUSH1 0x80 DUP4 ADD MSTORE PUSH1 0xA0 DUP3 ADD MSTORE RETURN JUMPDEST CALLVALUE PUSH2 0x219 JUMPI PUSH1 0x60 CALLDATASIZE PUSH1 0x3 NOT ADD SLT PUSH2 0x219 JUMPI PUSH1 0x20 PUSH2 0x211 PUSH1 0x44 CALLDATALOAD PUSH1 0x24 CALLDATALOAD PUSH1 0x4 CALLDATALOAD PUSH2 0x1B7C JUMP JUMPDEST CALLVALUE PUSH2 0x219 JUMPI PUSH1 0x20 PUSH2 0x211 PUSH2 0xA74 CALLDATASIZE PUSH2 0x15BC JUMP JUMPDEST SWAP1 PUSH2 0x20C7 JUMP JUMPDEST CALLVALUE PUSH2 0x219 JUMPI PUSH1 0x20 CALLDATASIZE PUSH1 0x3 NOT ADD SLT PUSH2 0x219 JUMPI PUSH1 0x20 PUSH2 0x211 PUSH2 0xA98 PUSH2 0x166F JUMP JUMPDEST PUSH2 0xAA3 PUSH1 0x4 CALLDATALOAD PUSH2 0x1791 JUMP JUMPDEST PUSH2 0x17C1 JUMP JUMPDEST CALLVALUE PUSH2 0x219 JUMPI PUSH1 0x20 CALLDATASIZE PUSH1 0x3 NOT ADD SLT PUSH2 0x219 JUMPI PUSH1 0x4 CALLDATALOAD PUSH1 0x1 PUSH1 0x1 PUSH1 0xA0 SHL SUB DUP2 AND SWAP1 DUP2 SWAP1 SUB PUSH2 0x219 JUMPI PUSH1 0x0 MSTORE PUSH1 0x3 PUSH1 0x20 MSTORE PUSH1 0x20 PUSH1 0x40 PUSH1 0x0 KECCAK256 PUSH1 0x40 MLOAD SWAP1 PUSH2 0xAEA DUP3 PUSH2 0x161A JUMP JUMPDEST DUP1 SLOAD SWAP2 DUP3 DUP2 MSTORE PUSH1 0xA0 PUSH1 0x5 PUSH1 0x1 DUP5 ADD SLOAD SWAP4 DUP5 DUP8 DUP6 ADD MSTORE PUSH1 0xFF PUSH1 0x2 DUP3 ADD SLOAD AND ISZERO ISZERO PUSH1 0x40 DUP6 ADD MSTORE PUSH1 0x3 DUP2 ADD SLOAD PUSH1 0x60 DUP6 ADD MSTORE PUSH1 0x4 DUP2 ADD SLOAD PUSH1 0x80 DUP6 ADD MSTORE ADD SLOAD SWAP2 ADD MSTORE PUSH1 0x40 MLOAD SWAP2 LT ISZERO DUP2 MSTORE RETURN JUMPDEST CALLVALUE PUSH2 0x219 JUMPI PUSH1 0x0 CALLDATASIZE PUSH1 0x3 NOT ADD SLT PUSH2 0x219 JUMPI PUSH1 0x20 PUSH2 0x211 PUSH2 0x166F JUMP JUMPDEST CALLVALUE PUSH2 0x219 JUMPI PUSH1 0x0 CALLDATASIZE PUSH1 0x3 NOT ADD SLT PUSH2 0x219 JUMPI PUSH1 0x20 PUSH1 0x40 MLOAD PUSH1 0x12 DUP2 MSTORE RETURN JUMPDEST CALLVALUE PUSH2 0x219 JUMPI PUSH1 0x0 CALLDATASIZE PUSH1 0x3 NOT ADD SLT PUSH2 0x219 JUMPI PUSH1 0x0 SLOAD PUSH1 0x40 MLOAD PUSH1 0x1 PUSH1 0x1 PUSH1 0xA0 SHL SUB SWAP1 SWAP2 AND DUP2 MSTORE PUSH1 0x20 SWAP1 RETURN JUMPDEST CALLVALUE PUSH2 0x219 JUMPI PUSH1 0x20 CALLDATASIZE PUSH1 0x3 NOT ADD SLT PUSH2 0x219 JUMPI PUSH1 0x20 PUSH8 0xDE0B6B3A7640000 PUSH2 0xBC0 PUSH2 0xBB8 PUSH2 0x166F JUMP JUMPDEST PUSH1 0x4 CALLDATALOAD PUSH2 0x17AE JUMP JUMPDEST DIV PUSH1 0x40 MLOAD SWAP1 DUP2 MSTORE RETURN JUMPDEST CALLVALUE PUSH2 0x219 JUMPI PUSH1 0x0 CALLDATASIZE PUSH1 0x3 NOT ADD SLT PUSH2 0x219 JUMPI PUSH1 0x20 PUSH1 0x8 SLOAD PUSH1 0x40 MLOAD SWAP1 DUP2 MSTORE RETURN JUMPDEST CALLVALUE PUSH2 0x219 JUMPI PUSH1 0x0 CALLDATASIZE PUSH1 0x3 NOT ADD SLT PUSH2 0x219 JUMPI PUSH2 0xC00 PUSH2 0x15D2 JUMP JUMPDEST PUSH1 0x0 DUP1 SLOAD PUSH1 0x1 PUSH1 0x1 PUSH1 0xA0 SHL SUB NOT DUP2 AND DUP3 SSTORE PUSH1 0x1 PUSH1 0x1 PUSH1 0xA0 SHL SUB AND PUSH32 0x8BE0079C531659141344CD1FD0A4F28419497F9722A3DAAFE3B4186F6B6457E0 DUP3 DUP1 LOG3 STOP JUMPDEST CALLVALUE PUSH2 0x219 JUMPI PUSH1 0x20 CALLDATASIZE PUSH1 0x3 NOT ADD SLT PUSH2 0x219 JUMPI PUSH1 0x4 CALLDATALOAD PUSH1 0x1 PUSH1 0x1 PUSH1 0xA0 SHL SUB DUP2 AND SWAP1 DUP2 SWAP1 SUB PUSH2 0x219 JUMPI PUSH1 0x0 MSTORE PUSH1 0x2 PUSH1 0x20 MSTORE PUSH1 0x20 PUSH2 0x211 PUSH1 0x40 PUSH1 0x0 KECCAK256 PUSH1 0x40 MLOAD SWAP1 PUSH2 0xC85 DUP3 PUSH2 0x15FE JUMP JUMPDEST DUP1 SLOAD DUP3 MSTORE PUSH1 0x1 DUP2 ADD SLOAD SWAP2 DUP5 DUP2 ADD SWAP3 DUP4 MSTORE PUSH1 0x2 DUP3 ADD SLOAD PUSH1 0x40 DUP3 ADD SWAP1 DUP2 MSTORE PUSH1 0x3 DUP4 ADD SLOAD SWAP1 PUSH1 0x60 DUP4 ADD SWAP2 DUP3 MSTORE PUSH1 0x4 DUP5 ADD SLOAD SWAP3 PUSH1 0x80 DUP2 ADD SWAP4 DUP5 MSTORE PUSH2 0xCDF PUSH1 0xFF PUSH1 0x6 PUSH1 0x5 DUP9 ADD SLOAD SWAP8 PUSH1 0xA0 DUP6 ADD SWAP9 DUP10 MSTORE ADD SLOAD AND ISZERO ISZERO DUP1 PUSH1 0xC0 DUP5 ADD MSTORE PUSH2 0x1BED JUMP JUMPDEST MLOAD SWAP5 MLOAD SWAP1 MLOAD SWAP2 MLOAD SWAP3 MLOAD SWAP4 MLOAD SWAP5 PUSH2 0x18F8 JUMP JUMPDEST CALLVALUE PUSH2 0x219 JUMPI PUSH1 0x0 CALLDATASIZE PUSH1 0x3 NOT ADD SLT PUSH2 0x219 JUMPI PUSH1 0x20 PUSH1 0x9 SLOAD PUSH1 0x40 MLOAD SWAP1 DUP2 MSTORE RETURN JUMPDEST CALLVALUE PUSH2 0x219 JUMPI PUSH1 0x0 CALLDATASIZE PUSH1 0x3 NOT ADD SLT PUSH2 0x219 JUMPI PUSH1 0x20 PUSH1 0x6 SLOAD PUSH1 0x40 MLOAD SWAP1 DUP2 MSTORE RETURN JUMPDEST CALLVALUE PUSH2 0x219 JUMPI PUSH1 0x20 CALLDATASIZE PUSH1 0x3 NOT ADD SLT PUSH2 0x219 JUMPI PUSH1 0x4 CALLDATALOAD PUSH1 0x1 PUSH1 0x1 PUSH1 0xA0 SHL SUB DUP2 AND SWAP1 DUP2 SWAP1 SUB PUSH2 0x219 JUMPI PUSH1 0x0 MSTORE PUSH1 0x2 PUSH1 0x20 MSTORE PUSH1 0xE0 PUSH1 0x40 PUSH1 0x0 KECCAK256 DUP1 SLOAD SWAP1 PUSH1 0x1 DUP2 ADD SLOAD SWAP1 PUSH1 0x2 DUP2 ADD SLOAD PUSH1 0x3 DUP3 ADD SLOAD PUSH1 0x4 DUP4 ADD SLOAD SWAP2 PUSH1 0xFF PUSH1 0x6 PUSH1 0x5 DUP7 ADD SLOAD SWAP6 ADD SLOAD AND SWAP5 PUSH1 0x40 MLOAD SWAP7 DUP8 MSTORE PUSH1 0x20 DUP8 ADD MSTORE PUSH1 0x40 DUP7 ADD MSTORE PUSH1 0x60 DUP6 ADD MSTORE PUSH1 0x80 DUP5 ADD MSTORE PUSH1 0xA0 DUP4 ADD MSTORE ISZERO ISZERO PUSH1 0xC0 DUP3 ADD MSTORE RETURN JUMPDEST CALLVALUE PUSH2 0x219 JUMPI PUSH1 0x0 CALLDATASIZE PUSH1 0x3 NOT ADD SLT PUSH2 0x219 JUMPI PUSH1 0x20 PUSH1 0x40 MLOAD PUSH1 0xC DUP2 MSTORE RETURN JUMPDEST CALLVALUE PUSH2 0x219 JUMPI PUSH1 0x20 PUSH2 0x211 PUSH2 0xDDF CALLDATASIZE PUSH2 0x1596 JUMP JUMPDEST SWAP5 SWAP4 SWAP1 SWAP4 SWAP3 SWAP2 SWAP3 PUSH2 0x18F8 JUMP JUMPDEST CALLVALUE PUSH2 0x219 JUMPI PUSH1 0x20 CALLDATASIZE PUSH1 0x3 NOT ADD SLT PUSH2 0x219 JUMPI PUSH1 0x4 CALLDATALOAD PUSH1 0x1 PUSH1 0x1 PUSH1 0xA0 SHL SUB DUP2 AND DUP1 DUP3 SUB PUSH2 0x219 JUMPI PUSH2 0xE18 PUSH2 0x1C39 JUMP JUMPDEST PUSH1 0x0 MSTORE PUSH1 0x3 PUSH1 0x20 MSTORE PUSH1 0x3 PUSH1 0x40 PUSH1 0x0 KECCAK256 PUSH2 0xE37 PUSH1 0xFF PUSH1 0x2 DUP4 ADD SLOAD AND PUSH2 0x1C5C JUMP JUMPDEST PUSH2 0xE46 PUSH1 0x4 DUP3 ADD SLOAD ISZERO ISZERO PUSH2 0x1C9F JUMP JUMPDEST ADD SLOAD PUSH3 0x278D00 DUP2 ADD DUP1 SWAP2 GT PUSH2 0x882 JUMPI TIMESTAMP LT PUSH2 0xE6A JUMPI PUSH2 0xE64 SWAP1 PUSH2 0x1D23 JUMP JUMPDEST PUSH1 0x1 DUP1 SSTORE STOP JUMPDEST PUSH1 0x40 MLOAD PUSH3 0x461BCD PUSH1 0xE5 SHL DUP2 MSTORE PUSH1 0x20 PUSH1 0x4 DUP3 ADD MSTORE PUSH1 0x1A PUSH1 0x24 DUP3 ADD MSTORE PUSH32 0x546F6F206561726C7920666F72206E657874207061796D656E74000000000000 PUSH1 0x44 DUP3 ADD MSTORE PUSH1 0x64 SWAP1 REVERT JUMPDEST CALLVALUE PUSH2 0x219 JUMPI PUSH1 0x0 CALLDATASIZE PUSH1 0x3 NOT ADD SLT PUSH2 0x219 JUMPI PUSH1 0x5 SLOAD PUSH1 0x40 MLOAD PUSH1 0x1 PUSH1 0x1 PUSH1 0xA0 SHL SUB SWAP1 SWAP2 AND DUP2 MSTORE PUSH1 0x20 SWAP1 RETURN JUMPDEST CALLVALUE PUSH2 0x219 JUMPI PUSH2 0xF83 PUSH1 0x6 PUSH2 0xEEB CALLDATASIZE PUSH2 0x1596 JUMP JUMPDEST SWAP1 PUSH2 0xF00 DUP3 DUP3 DUP6 DUP8 DUP10 DUP12 SWAP13 SWAP10 SWAP11 SWAP9 SWAP14 SWAP12 PUSH2 0x18F8 JUMP JUMPDEST SWAP8 PUSH1 0x40 MLOAD SWAP6 PUSH2 0xF0E DUP8 PUSH2 0x15FE JUMP JUMPDEST DUP9 DUP8 MSTORE PUSH1 0x20 DUP8 ADD SWAP5 DUP6 MSTORE PUSH1 0x40 DUP8 ADD SWAP1 DUP2 MSTORE PUSH1 0x60 DUP8 ADD SWAP2 DUP3 MSTORE PUSH1 0x80 DUP8 ADD SWAP3 DUP4 MSTORE PUSH1 0xA0 DUP8 ADD SWAP4 DUP5 MSTORE PUSH1 0xC0 DUP8 ADD SWAP5 PUSH1 0x1 DUP7 MSTORE CALLER PUSH1 0x0 MSTORE PUSH1 0x2 PUSH1 0x20 MSTORE PUSH1 0x40 PUSH1 0x0 KECCAK256 SWAP8 MLOAD DUP9 SSTORE MLOAD PUSH1 0x1 DUP9 ADD SSTORE MLOAD PUSH1 0x2 DUP8 ADD SSTORE MLOAD PUSH1 0x3 DUP7 ADD SSTORE MLOAD PUSH1 0x4 DUP6 ADD SSTORE MLOAD PUSH1 0x5 DUP5 ADD SSTORE MLOAD ISZERO ISZERO SWAP2 ADD SWAP1 PUSH1 0xFF DUP1 NOT DUP4 SLOAD AND SWAP2 ISZERO ISZERO AND OR SWAP1 SSTORE JUMP JUMPDEST PUSH1 0xC DUP2 MUL SWAP1 DUP1 DUP3 DIV PUSH1 0xC EQ SWAP1 ISZERO OR ISZERO PUSH2 0x882 JUMPI PUSH1 0x5 PUSH1 0x40 MLOAD SWAP2 PUSH2 0xFA5 DUP4 PUSH2 0x161A JUMP JUMPDEST PUSH1 0x0 DUP4 MSTORE PUSH1 0x20 DUP4 ADD SWAP1 DUP5 DUP3 MSTORE PUSH1 0x40 DUP5 ADD PUSH1 0x0 DUP2 MSTORE PUSH2 0x1005 PUSH1 0x60 DUP7 ADD SWAP2 PUSH1 0x0 DUP4 MSTORE PUSH1 0x80 DUP8 ADD SWAP4 DUP5 MSTORE PUSH1 0xA0 DUP8 ADD SWAP5 PUSH1 0x0 DUP7 MSTORE CALLER PUSH1 0x0 MSTORE PUSH1 0x3 PUSH1 0x20 MSTORE PUSH1 0x40 PUSH1 0x0 KECCAK256 SWAP8 MLOAD DUP9 SSTORE MLOAD PUSH1 0x1 DUP9 ADD SSTORE MLOAD ISZERO ISZERO PUSH1 0x2 DUP8 ADD SWAP1 PUSH1 0xFF DUP1 NOT DUP4 SLOAD AND SWAP2 ISZERO ISZERO AND OR SWAP1 SSTORE JUMP JUMPDEST MLOAD PUSH1 0x3 DUP6 ADD SSTORE MLOAD PUSH1 0x4 DUP5 ADD SSTORE MLOAD SWAP2 ADD SSTORE PUSH1 0x40 MLOAD SWAP1 DUP2 MSTORE PUSH32 0x512E2EA4790AE5CB1260BA59A21AD4EB7A682E81375238A785FC80E1607C1BA PUSH1 0x20 CALLER SWAP3 LOG2 STOP JUMPDEST CALLVALUE PUSH2 0x219 JUMPI PUSH1 0x0 CALLDATASIZE PUSH1 0x3 NOT ADD SLT PUSH2 0x219 JUMPI PUSH1 0x20 PUSH1 0xA SLOAD PUSH1 0x40 MLOAD SWAP1 DUP2 MSTORE RETURN JUMPDEST CALLVALUE PUSH2 0x219 JUMPI PUSH1 0xC PUSH2 0x107A PUSH2 0x1074 CALLDATASIZE PUSH2 0x15BC JUMP JUMPDEST SWAP1 PUSH2 0x17AE JUMP JUMPDEST DIV PUSH2 0x2710 SWAP1 DUP2 ADD DUP1 SWAP2 GT PUSH2 0x882 JUMPI PUSH1 0x20 SWAP1 PUSH1 0x40 MLOAD SWAP1 DUP2 MSTORE RETURN JUMPDEST CALLVALUE PUSH2 0x219 JUMPI PUSH1 0x80 CALLDATASIZE PUSH1 0x3 NOT ADD SLT PUSH2 0x219 JUMPI PUSH1 0x20 PUSH2 0x211 PUSH1 0x64 CALLDATALOAD PUSH1 0x44 CALLDATALOAD PUSH1 0x24 CALLDATALOAD PUSH1 0x4 CALLDATALOAD PUSH2 0x1FCE JUMP JUMPDEST CALLVALUE PUSH2 0x219 JUMPI PUSH1 0x0 CALLDATASIZE PUSH1 0x3 NOT ADD SLT PUSH2 0x219 JUMPI PUSH2 0x10D3 PUSH2 0x1C39 JUMP JUMPDEST CALLER PUSH1 0x0 MSTORE PUSH1 0x20 PUSH1 0x2 DUP2 MSTORE PUSH1 0xFF PUSH1 0x6 PUSH1 0x40 PUSH1 0x0 KECCAK256 ADD SLOAD AND PUSH2 0x1211 JUMPI CALLER PUSH1 0x0 MSTORE PUSH1 0x3 DUP2 MSTORE PUSH1 0xFF PUSH1 0x2 PUSH1 0x40 PUSH1 0x0 KECCAK256 ADD SLOAD AND PUSH2 0x11BE JUMPI CALLER PUSH1 0x0 MSTORE PUSH1 0x3 DUP2 MSTORE PUSH1 0x40 PUSH1 0x0 KECCAK256 DUP1 SLOAD SWAP1 DUP2 ISZERO PUSH2 0x1182 JUMPI PUSH1 0x0 DUP1 DUP1 SWAP4 DUP2 DUP1 SWAP5 SSTORE PUSH2 0x1130 DUP2 PUSH1 0x9 SLOAD PUSH2 0x18EB JUMP JUMPDEST PUSH1 0x9 SSTORE CALLER GAS CALL PUSH2 0x113E PUSH2 0x1CE3 JUMP JUMPDEST POP ISZERO PUSH2 0x114A JUMPI PUSH1 0x1 DUP1 SSTORE STOP JUMPDEST PUSH1 0x64 SWAP1 PUSH1 0x40 MLOAD SWAP1 PUSH3 0x461BCD PUSH1 0xE5 SHL DUP3 MSTORE PUSH1 0x4 DUP3 ADD MSTORE PUSH1 0x11 PUSH1 0x24 DUP3 ADD MSTORE PUSH17 0x15DA5D1A191C985DD85B0819985A5B1959 PUSH1 0x7A SHL PUSH1 0x44 DUP3 ADD MSTORE REVERT JUMPDEST PUSH1 0x40 MLOAD PUSH3 0x461BCD PUSH1 0xE5 SHL DUP2 MSTORE PUSH1 0x4 DUP2 ADD DUP5 SWAP1 MSTORE PUSH1 0x14 PUSH1 0x24 DUP3 ADD MSTORE PUSH20 0x4E6F2066756E647320746F207769746864726177 PUSH1 0x60 SHL PUSH1 0x44 DUP3 ADD MSTORE PUSH1 0x64 SWAP1 REVERT JUMPDEST PUSH1 0x84 SWAP1 PUSH1 0x40 MLOAD SWAP1 PUSH3 0x461BCD PUSH1 0xE5 SHL DUP3 MSTORE PUSH1 0x4 DUP3 ADD MSTORE PUSH1 0x26 PUSH1 0x24 DUP3 ADD MSTORE PUSH32 0x43616E6E6F74207769746864726177206166746572207061796D656E74732073 PUSH1 0x44 DUP3 ADD MSTORE PUSH6 0x1D185C9D1959 PUSH1 0xD2 SHL PUSH1 0x64 DUP3 ADD MSTORE REVERT JUMPDEST PUSH1 0x64 SWAP1 PUSH1 0x40 MLOAD SWAP1 PUSH3 0x461BCD PUSH1 0xE5 SHL DUP3 MSTORE PUSH1 0x4 DUP3 ADD MSTORE PUSH1 0x1E PUSH1 0x24 DUP3 ADD MSTORE PUSH32 0x506C616E206D7573742062652064656163746976617465642066697273740000 PUSH1 0x44 DUP3 ADD MSTORE REVERT JUMPDEST CALLVALUE PUSH2 0x219 JUMPI PUSH1 0x0 CALLDATASIZE PUSH1 0x3 NOT ADD SLT PUSH2 0x219 JUMPI CALLER PUSH1 0x0 MSTORE PUSH1 0x2 PUSH1 0x20 MSTORE PUSH2 0x1283 PUSH1 0xFF PUSH1 0x6 PUSH1 0x40 PUSH1 0x0 KECCAK256 ADD SLOAD AND PUSH2 0x1BED JUMP JUMPDEST CALLER PUSH1 0x0 MSTORE PUSH1 0x3 PUSH1 0x20 MSTORE PUSH1 0xFF PUSH1 0x2 PUSH1 0x40 PUSH1 0x0 KECCAK256 ADD SLOAD AND PUSH2 0x12B8 JUMPI CALLER PUSH1 0x0 SWAP1 DUP2 MSTORE PUSH1 0x2 PUSH1 0x20 MSTORE PUSH1 0x40 SWAP1 KECCAK256 PUSH1 0x6 ADD DUP1 SLOAD PUSH1 0xFF NOT AND SWAP1 SSTORE STOP JUMPDEST PUSH1 0x40 MLOAD PUSH3 0x461BCD PUSH1 0xE5 SHL DUP2 MSTORE PUSH1 0x20 PUSH1 0x4 DUP3 ADD MSTORE PUSH1 0x28 PUSH1 0x24 DUP3 ADD MSTORE PUSH32 0x43616E6E6F742064656163746976617465206166746572207061796D656E7473 PUSH1 0x44 DUP3 ADD MSTORE PUSH8 0x81CDD185C9D1959 PUSH1 0xC2 SHL PUSH1 0x64 DUP3 ADD MSTORE PUSH1 0x84 SWAP1 REVERT JUMPDEST CALLVALUE PUSH2 0x219 JUMPI PUSH2 0x131C CALLDATASIZE PUSH2 0x1596 JUMP JUMPDEST SWAP5 SWAP4 SWAP1 SWAP3 SWAP2 SWAP5 CALLER PUSH1 0x0 MSTORE PUSH1 0x20 SWAP4 PUSH1 0x2 DUP6 MSTORE PUSH2 0x1341 PUSH1 0xFF PUSH1 0x6 PUSH1 0x40 PUSH1 0x0 KECCAK256 ADD SLOAD AND PUSH2 0x1BED JUMP JUMPDEST CALLER PUSH1 0x0 MSTORE PUSH1 0x3 DUP6 MSTORE PUSH1 0xFF PUSH1 0x2 PUSH1 0x40 PUSH1 0x0 KECCAK256 ADD SLOAD AND PUSH2 0x1450 JUMPI SWAP2 DUP2 DUP4 PUSH2 0x1370 PUSH1 0x6 SWAP5 DUP8 SWAP7 DUP12 PUSH2 0x13F1 SWAP10 DUP8 DUP14 PUSH2 0x18F8 JUMP JUMPDEST SWAP9 PUSH1 0x40 MLOAD SWAP6 PUSH2 0x137E DUP8 PUSH2 0x15FE JUMP JUMPDEST DUP10 DUP8 MSTORE DUP9 DUP8 ADD SWAP5 DUP6 MSTORE PUSH1 0x40 DUP8 ADD SWAP1 DUP2 MSTORE PUSH1 0x60 DUP8 ADD SWAP2 DUP3 MSTORE PUSH1 0x80 DUP8 ADD SWAP3 DUP4 MSTORE PUSH1 0xA0 DUP8 ADD SWAP4 DUP5 MSTORE PUSH1 0xC0 DUP8 ADD SWAP5 PUSH1 0x1 DUP7 MSTORE CALLER PUSH1 0x0 MSTORE PUSH1 0x2 DUP11 MSTORE PUSH1 0x40 PUSH1 0x0 KECCAK256 SWAP8 MLOAD DUP9 SSTORE MLOAD PUSH1 0x1 DUP9 ADD SSTORE MLOAD PUSH1 0x2 DUP8 ADD SSTORE MLOAD PUSH1 0x3 DUP7 ADD SSTORE MLOAD PUSH1 0x4 DUP6 ADD SSTORE MLOAD PUSH1 0x5 DUP5 ADD SSTORE MLOAD ISZERO ISZERO SWAP2 ADD SWAP1 PUSH1 0xFF DUP1 NOT DUP4 SLOAD AND SWAP2 ISZERO ISZERO AND OR SWAP1 SSTORE JUMP JUMPDEST PUSH1 0x3 DUP2 MSTORE DUP3 PUSH1 0x1 PUSH1 0x40 PUSH1 0x0 KECCAK256 ADD SSTORE PUSH1 0xC DUP3 MUL SWAP2 DUP1 DUP4 DIV PUSH1 0xC EQ SWAP1 ISZERO OR ISZERO PUSH2 0x882 JUMPI PUSH32 0x7A5814448CE223A3B3DE9ED43F64FD31CD7E13CAABAEB2B71BA8250AF7BF8121 SWAP2 CALLER PUSH1 0x0 MSTORE PUSH1 0x3 DUP3 MSTORE PUSH1 0x4 PUSH1 0x40 PUSH1 0x0 KECCAK256 ADD SSTORE PUSH1 0x40 MLOAD SWAP3 DUP4 MSTORE CALLER SWAP3 LOG2 STOP JUMPDEST PUSH1 0x40 MLOAD PUSH3 0x461BCD PUSH1 0xE5 SHL DUP2 MSTORE PUSH1 0x4 DUP2 ADD DUP7 SWAP1 MSTORE PUSH1 0x29 PUSH1 0x24 DUP3 ADD MSTORE PUSH32 0x43616E6E6F742075706461746520706C616E206166746572207061796D656E74 PUSH1 0x44 DUP3 ADD MSTORE PUSH9 0x1CC81CDD185C9D1959 PUSH1 0xBA SHL PUSH1 0x64 DUP3 ADD MSTORE PUSH1 0x84 SWAP1 REVERT JUMPDEST CALLVALUE PUSH2 0x219 JUMPI PUSH1 0x20 CALLDATASIZE PUSH1 0x3 NOT ADD SLT PUSH2 0x219 JUMPI PUSH1 0x4 CALLDATALOAD PUSH1 0x0 MSTORE PUSH1 0x4 PUSH1 0x20 MSTORE PUSH1 0x20 PUSH1 0x40 PUSH1 0x0 KECCAK256 SLOAD PUSH1 0x40 MLOAD SWAP1 DUP2 MSTORE RETURN JUMPDEST CALLVALUE PUSH2 0x219 JUMPI PUSH1 0x0 CALLDATASIZE PUSH1 0x3 NOT ADD SLT PUSH2 0x219 JUMPI PUSH1 0x20 PUSH1 0x40 MLOAD PUSH3 0x278D00 DUP2 MSTORE RETURN JUMPDEST CALLVALUE PUSH2 0x219 JUMPI PUSH1 0x0 CALLDATASIZE PUSH1 0x3 NOT ADD SLT PUSH2 0x219 JUMPI PUSH1 0x6 SLOAD PUSH2 0x1C20 DUP2 ADD DUP1 SWAP2 GT PUSH2 0x882 JUMPI NUMBER LT PUSH2 0x1554 JUMPI PUSH32 0x61C2885FB2A4A6F1A4DE4FB596711F648003B9F5564C348504B049235272BB23 PUSH1 0x40 PUSH2 0x1542 PUSH2 0x166F JUMP JUMPDEST NUMBER PUSH1 0x6 SSTORE DUP2 MLOAD SWAP1 NUMBER DUP3 MSTORE PUSH1 0x20 DUP3 ADD MSTORE LOG1 STOP JUMPDEST PUSH3 0x461BCD PUSH1 0xE5 SHL DUP2 MSTORE PUSH1 0x20 PUSH1 0x4 DUP3 ADD MSTORE PUSH1 0x1E PUSH1 0x24 DUP3 ADD MSTORE PUSH32 0x546F6F206561726C7920746F2075706461746520707269636520666565640000 PUSH1 0x44 DUP3 ADD MSTORE PUSH1 0x64 SWAP1 REVERT JUMPDEST PUSH1 0xC0 SWAP1 PUSH1 0x3 NOT ADD SLT PUSH2 0x219 JUMPI PUSH1 0x4 CALLDATALOAD SWAP1 PUSH1 0x24 CALLDATALOAD SWAP1 PUSH1 0x44 CALLDATALOAD SWAP1 PUSH1 0x64 CALLDATALOAD SWAP1 PUSH1 0x84 CALLDATALOAD SWAP1 PUSH1 0xA4 CALLDATALOAD SWAP1 JUMP JUMPDEST PUSH1 0x40 SWAP1 PUSH1 0x3 NOT ADD SLT PUSH2 0x219 JUMPI PUSH1 0x4 CALLDATALOAD SWAP1 PUSH1 0x24 CALLDATALOAD SWAP1 JUMP JUMPDEST PUSH1 0x0 SLOAD PUSH1 0x1 PUSH1 0x1 PUSH1 0xA0 SHL SUB AND CALLER SUB PUSH2 0x15E6 JUMPI JUMP JUMPDEST PUSH1 0x40 MLOAD PUSH4 0x118CDAA7 PUSH1 0xE0 SHL DUP2 MSTORE CALLER PUSH1 0x4 DUP3 ADD MSTORE PUSH1 0x24 SWAP1 REVERT JUMPDEST PUSH1 0xE0 DUP2 ADD SWAP1 DUP2 LT PUSH8 0xFFFFFFFFFFFFFFFF DUP3 GT OR PUSH2 0x840 JUMPI PUSH1 0x40 MSTORE JUMP JUMPDEST PUSH1 0xC0 DUP2 ADD SWAP1 DUP2 LT PUSH8 0xFFFFFFFFFFFFFFFF DUP3 GT OR PUSH2 0x840 JUMPI PUSH1 0x40 MSTORE JUMP JUMPDEST SWAP1 PUSH1 0x1F DUP1 NOT SWAP2 ADD AND DUP2 ADD SWAP1 DUP2 LT PUSH8 0xFFFFFFFFFFFFFFFF DUP3 GT OR PUSH2 0x840 JUMPI PUSH1 0x40 MSTORE JUMP JUMPDEST MLOAD SWAP1 PUSH10 0xFFFFFFFFFFFFFFFFFFFF DUP3 AND DUP3 SUB PUSH2 0x219 JUMPI JUMP JUMPDEST PUSH1 0x5 SLOAD PUSH1 0x40 MLOAD PUSH4 0x3FABE5A3 PUSH1 0xE2 SHL DUP2 MSTORE SWAP1 PUSH1 0xA0 SWAP1 DUP3 SWAP1 PUSH1 0x4 SWAP1 DUP3 SWAP1 PUSH1 0x1 PUSH1 0x1 PUSH1 0xA0 SHL SUB AND GAS STATICCALL DUP1 ISZERO PUSH2 0x856 JUMPI PUSH1 0x0 SWAP2 DUP3 SWAP2 PUSH2 0x173A JUMPI JUMPDEST POP PUSH1 0x0 DUP3 SGT ISZERO PUSH2 0x16F5 JUMPI ISZERO PUSH2 0x16B7 JUMPI SWAP1 JUMP JUMPDEST PUSH1 0x40 MLOAD PUSH3 0x461BCD PUSH1 0xE5 SHL DUP2 MSTORE PUSH1 0x20 PUSH1 0x4 DUP3 ADD MSTORE PUSH1 0x16 PUSH1 0x24 DUP3 ADD MSTORE PUSH22 0x141C9A58D94819995959081B9BDD081D5C19185D1959 PUSH1 0x52 SHL PUSH1 0x44 DUP3 ADD MSTORE PUSH1 0x64 SWAP1 REVERT JUMPDEST PUSH1 0x40 MLOAD PUSH3 0x461BCD PUSH1 0xE5 SHL DUP2 MSTORE PUSH1 0x20 PUSH1 0x4 DUP3 ADD MSTORE PUSH1 0x19 PUSH1 0x24 DUP3 ADD MSTORE PUSH32 0x496E76616C6964207072696365206665656420616E7377657200000000000000 PUSH1 0x44 DUP3 ADD MSTORE PUSH1 0x64 SWAP1 REVERT JUMPDEST SWAP2 SWAP1 POP PUSH1 0xA0 DUP3 RETURNDATASIZE DUP3 GT PUSH2 0x1789 JUMPI JUMPDEST DUP2 PUSH2 0x1755 PUSH1 0xA0 SWAP4 DUP4 PUSH2 0x1636 JUMP JUMPDEST DUP2 ADD SUB SLT PUSH2 0x1786 JUMPI POP PUSH2 0x1767 DUP2 PUSH2 0x1658 JUMP JUMPDEST POP PUSH1 0x20 DUP2 ADD MLOAD PUSH2 0x177E PUSH1 0x80 PUSH1 0x60 DUP5 ADD MLOAD SWAP4 ADD PUSH2 0x1658 JUMP JUMPDEST POP SWAP1 CODESIZE PUSH2 0x16A5 JUMP JUMPDEST DUP1 REVERT JUMPDEST RETURNDATASIZE SWAP2 POP PUSH2 0x1748 JUMP JUMPDEST SWAP1 PUSH8 0xDE0B6B3A7640000 SWAP2 DUP3 DUP2 MUL SWAP3 DUP2 DUP5 DIV EQ SWAP1 ISZERO OR ISZERO PUSH2 0x882 JUMPI JUMP JUMPDEST DUP2 DUP2 MUL SWAP3 SWAP2 DUP2 ISZERO SWAP2 DUP5 DIV EQ OR ISZERO PUSH2 0x882 JUMPI JUMP JUMPDEST DUP2 ISZERO PUSH2 0x17CB JUMPI DIV SWAP1 JUMP JUMPDEST PUSH4 0x4E487B71 PUSH1 0xE0 SHL PUSH1 0x0 MSTORE PUSH1 0x12 PUSH1 0x4 MSTORE PUSH1 0x24 PUSH1 0x0 REVERT JUMPDEST SWAP2 SWAP1 DUP3 ADD DUP1 SWAP3 GT PUSH2 0x882 JUMPI JUMP JUMPDEST ISZERO PUSH2 0x17F5 JUMPI JUMP JUMPDEST PUSH1 0x40 MLOAD PUSH3 0x461BCD PUSH1 0xE5 SHL DUP2 MSTORE PUSH1 0x20 PUSH1 0x4 DUP3 ADD MSTORE PUSH1 0x26 PUSH1 0x24 DUP3 ADD MSTORE PUSH32 0x4C69666520657870656374616E6379206D757374206265206772656174657220 PUSH1 0x44 DUP3 ADD MSTORE PUSH6 0x7468616E203 PUSH1 0xD4 SHL PUSH1 0x64 DUP3 ADD MSTORE PUSH1 0x84 SWAP1 REVERT JUMPDEST ISZERO PUSH2 0x1850 JUMPI JUMP JUMPDEST PUSH1 0x40 MLOAD PUSH3 0x461BCD PUSH1 0xE5 SHL DUP2 MSTORE PUSH1 0x20 PUSH1 0x4 DUP3 ADD MSTORE PUSH1 0x1D PUSH1 0x24 DUP3 ADD MSTORE PUSH32 0x5969656C6420726174652063616E6E6F74206578636565642031303025000000 PUSH1 0x44 DUP3 ADD MSTORE PUSH1 0x64 SWAP1 REVERT JUMPDEST ISZERO PUSH2 0x189C JUMPI JUMP JUMPDEST PUSH1 0x40 MLOAD PUSH3 0x461BCD PUSH1 0xE5 SHL DUP2 MSTORE PUSH1 0x20 PUSH1 0x4 DUP3 ADD MSTORE PUSH1 0x21 PUSH1 0x24 DUP3 ADD MSTORE PUSH32 0x496E666C6174696F6E20726174652063616E6E6F742065786365656420313030 PUSH1 0x44 DUP3 ADD MSTORE PUSH1 0x25 PUSH1 0xF8 SHL PUSH1 0x64 DUP3 ADD MSTORE PUSH1 0x84 SWAP1 REVERT JUMPDEST SWAP2 SWAP1 DUP3 SUB SWAP2 DUP3 GT PUSH2 0x882 JUMPI JUMP JUMPDEST SWAP3 SWAP5 SWAP2 SWAP4 SWAP1 SWAP5 PUSH2 0x1909 DUP5 ISZERO ISZERO PUSH2 0x17EE JUMP JUMPDEST DUP6 ISZERO PUSH2 0x1AC7 JUMPI DUP1 DUP6 GT ISZERO PUSH2 0x1A6A JUMPI PUSH2 0x1951 SWAP1 PUSH2 0x194B PUSH2 0x2710 SWAP8 PUSH2 0x192E DUP10 DUP7 GT ISZERO PUSH2 0x1849 JUMP JUMPDEST PUSH2 0x193A DUP10 DUP8 GT ISZERO PUSH2 0x1895 JUMP JUMPDEST PUSH2 0xAA3 PUSH2 0x1945 PUSH2 0x166F JUMP JUMPDEST SWAP2 PUSH2 0x1791 JUMP JUMPDEST SWAP6 PUSH2 0x18EB JUMP JUMPDEST SWAP2 DUP1 DUP7 ADD DUP1 DUP8 GT PUSH2 0x882 JUMPI DUP3 DUP8 ADD DUP1 DUP9 GT PUSH2 0x882 JUMPI DUP8 DUP3 MUL SWAP2 DUP1 DUP4 DIV DUP10 EQ SWAP1 ISZERO OR ISZERO PUSH2 0x882 JUMPI PUSH2 0x1980 SWAP2 PUSH2 0x17C1 JUMP JUMPDEST SWAP2 PUSH1 0x0 SWAP2 SUB PUSH2 0x19BE JUMPI POP SWAP1 PUSH2 0x1994 SWAP2 PUSH2 0x1B2B JUMP JUMPDEST SWAP2 PUSH1 0xC DUP2 MUL SWAP1 DUP1 DUP3 DIV PUSH1 0xC EQ SWAP1 ISZERO OR ISZERO PUSH2 0x882 JUMPI PUSH2 0x19BA SWAP3 PUSH2 0x19B5 SWAP2 PUSH2 0x17AE JUMP JUMPDEST PUSH2 0x17AE JUMP JUMPDEST DIV SWAP1 JUMP JUMPDEST SWAP4 SWAP2 PUSH2 0x19CD PUSH2 0x19D4 SWAP2 DUP4 PUSH2 0x1B2B JUMP JUMPDEST SWAP4 DUP3 PUSH2 0x1B2B JUMP JUMPDEST SWAP1 DUP2 DUP7 SUB SWAP1 DUP7 DUP3 GT PUSH2 0x1A56 JUMPI DUP7 SUB SWAP2 DUP7 DUP4 GT PUSH2 0x1A56 JUMPI DUP7 DUP3 MUL SWAP2 DUP3 DIV DUP8 EQ SWAP1 DUP8 EQ OR ISZERO PUSH2 0x1A42 JUMPI SWAP1 PUSH2 0x1A05 SWAP2 PUSH2 0x17C1 JUMP JUMPDEST SWAP3 PUSH1 0xC DUP3 MUL SWAP2 DUP1 DUP4 DIV PUSH1 0xC EQ SWAP1 ISZERO OR ISZERO PUSH2 0x1A2E JUMPI POP SWAP2 PUSH2 0x19B5 PUSH2 0x1A29 SWAP3 DUP6 SWAP5 PUSH2 0x17AE JUMP JUMPDEST DIV DIV SWAP1 JUMP JUMPDEST PUSH4 0x4E487B71 PUSH1 0xE0 SHL DUP2 MSTORE PUSH1 0x11 PUSH1 0x4 MSTORE PUSH1 0x24 SWAP1 REVERT JUMPDEST PUSH4 0x4E487B71 PUSH1 0xE0 SHL DUP6 MSTORE PUSH1 0x11 PUSH1 0x4 MSTORE PUSH1 0x24 DUP6 REVERT JUMPDEST PUSH4 0x4E487B71 PUSH1 0xE0 SHL DUP7 MSTORE PUSH1 0x11 PUSH1 0x4 MSTORE PUSH1 0x24 DUP7 REVERT JUMPDEST PUSH1 0x40 MLOAD PUSH3 0x461BCD PUSH1 0xE5 SHL DUP2 MSTORE PUSH1 0x20 PUSH1 0x4 DUP3 ADD MSTORE PUSH1 0x2F PUSH1 0x24 DUP3 ADD MSTORE PUSH32 0x5265746972656D656E7420616765206D75737420626520677265617465722074 PUSH1 0x44 DUP3 ADD MSTORE PUSH15 0x68616E2063757272656E7420616765 PUSH1 0x88 SHL PUSH1 0x64 DUP3 ADD MSTORE PUSH1 0x84 SWAP1 REVERT JUMPDEST PUSH1 0x40 MLOAD PUSH3 0x461BCD PUSH1 0xE5 SHL DUP2 MSTORE PUSH1 0x20 PUSH1 0x4 DUP3 ADD MSTORE PUSH1 0x27 PUSH1 0x24 DUP3 ADD MSTORE PUSH32 0x4D6F6E74686C79207370656E64696E67206D7573742062652067726561746572 PUSH1 0x44 DUP3 ADD MSTORE PUSH7 0x207468616E203 PUSH1 0xCC SHL PUSH1 0x64 DUP3 ADD MSTORE PUSH1 0x84 SWAP1 REVERT JUMPDEST PUSH1 0x0 NOT DUP2 EQ PUSH2 0x882 JUMPI PUSH1 0x1 ADD SWAP1 JUMP JUMPDEST SWAP2 SWAP1 DUP1 ISZERO PUSH2 0x1B74 JUMPI PUSH1 0x1 DUP2 EQ PUSH2 0x1B71 JUMPI SWAP2 PUSH2 0x2710 SWAP3 PUSH1 0x0 SWAP2 JUMPDEST DUP2 DUP4 LT PUSH2 0x1B50 JUMPI POP POP POP JUMP JUMPDEST SWAP1 SWAP2 SWAP4 PUSH2 0x2710 PUSH2 0x1B63 DUP4 PUSH2 0x1B6A SWAP4 PUSH2 0x17AE JUMP JUMPDEST DIV SWAP5 PUSH2 0x1B1C JUMP JUMPDEST SWAP2 SWAP1 PUSH2 0x1B44 JUMP JUMPDEST POP JUMP JUMPDEST POP PUSH2 0x2710 SWAP2 POP JUMP JUMPDEST SWAP1 SWAP2 DUP3 ISZERO PUSH2 0x1BE7 JUMPI SWAP2 PUSH2 0x2710 SWAP3 PUSH1 0xC PUSH1 0x0 SWAP3 DIV DUP5 ADD SWAP1 DUP2 DUP6 GT JUMPDEST DUP2 DUP5 LT PUSH2 0x1BAE JUMPI POP POP POP POP PUSH2 0x2710 SWAP2 PUSH2 0x19BA SWAP2 PUSH2 0x17AE JUMP JUMPDEST SWAP1 SWAP2 SWAP3 SWAP5 PUSH2 0x2710 DUP2 MUL SWAP1 DUP1 DUP3 DIV PUSH2 0x2710 EQ SWAP1 ISZERO OR ISZERO PUSH2 0x882 JUMPI DUP2 PUSH2 0x882 JUMPI PUSH2 0x1BD9 DUP5 PUSH2 0x1BDF SWAP3 PUSH2 0x17C1 JUMP JUMPDEST SWAP6 PUSH2 0x1B1C JUMP JUMPDEST SWAP3 SWAP2 SWAP1 PUSH2 0x1B96 JUMP JUMPDEST POP SWAP1 POP SWAP1 JUMP JUMPDEST ISZERO PUSH2 0x1BF4 JUMPI JUMP JUMPDEST PUSH1 0x40 MLOAD PUSH3 0x461BCD PUSH1 0xE5 SHL DUP2 MSTORE PUSH1 0x20 PUSH1 0x4 DUP3 ADD MSTORE PUSH1 0x1F PUSH1 0x24 DUP3 ADD MSTORE PUSH32 0x4E6F20616374697665207265746972656D656E7420706C616E20666F756E6400 PUSH1 0x44 DUP3 ADD MSTORE PUSH1 0x64 SWAP1 REVERT JUMPDEST PUSH1 0x2 PUSH1 0x1 SLOAD EQ PUSH2 0x1C4A JUMPI PUSH1 0x2 PUSH1 0x1 SSTORE JUMP JUMPDEST PUSH1 0x40 MLOAD PUSH4 0x3EE5AEB5 PUSH1 0xE0 SHL DUP2 MSTORE PUSH1 0x4 SWAP1 REVERT JUMPDEST ISZERO PUSH2 0x1C63 JUMPI JUMP JUMPDEST PUSH1 0x40 MLOAD PUSH3 0x461BCD PUSH1 0xE5 SHL DUP2 MSTORE PUSH1 0x20 PUSH1 0x4 DUP3 ADD MSTORE PUSH1 0x14 PUSH1 0x24 DUP3 ADD MSTORE PUSH20 0x14185E5B595B9D1CC81B9BDD081CDD185C9D1959 PUSH1 0x62 SHL PUSH1 0x44 DUP3 ADD MSTORE PUSH1 0x64 SWAP1 REVERT JUMPDEST ISZERO PUSH2 0x1CA6 JUMPI JUMP JUMPDEST PUSH1 0x40 MLOAD PUSH3 0x461BCD PUSH1 0xE5 SHL DUP2 MSTORE PUSH1 0x20 PUSH1 0x4 DUP3 ADD MSTORE PUSH1 0x15 PUSH1 0x24 DUP3 ADD MSTORE PUSH21 0x4E6F207061796D656E74732072656D61696E696E67 PUSH1 0x58 SHL PUSH1 0x44 DUP3 ADD MSTORE PUSH1 0x64 SWAP1 REVERT JUMPDEST RETURNDATASIZE ISZERO PUSH2 0x1D1E JUMPI RETURNDATASIZE SWAP1 PUSH8 0xFFFFFFFFFFFFFFFF DUP3 GT PUSH2 0x840 JUMPI PUSH1 0x40 MLOAD SWAP2 PUSH2 0x1D12 PUSH1 0x1F DUP3 ADD PUSH1 0x1F NOT AND PUSH1 0x20 ADD DUP5 PUSH2 0x1636 JUMP JUMPDEST DUP3 MSTORE RETURNDATASIZE PUSH1 0x0 PUSH1 0x20 DUP5 ADD RETURNDATACOPY JUMP JUMPDEST PUSH1 0x60 SWAP1 JUMP JUMPDEST PUSH1 0x1 DUP1 PUSH1 0xA0 SHL SUB DUP2 AND SWAP1 PUSH1 0x0 SWAP1 DUP3 DUP3 MSTORE PUSH1 0x20 SWAP1 PUSH1 0x3 DUP3 MSTORE PUSH1 0x40 SWAP1 DUP2 DUP5 KECCAK256 SWAP1 PUSH1 0x2 DUP5 MSTORE DUP3 DUP6 KECCAK256 SWAP5 DUP4 MLOAD PUSH2 0x1D54 DUP2 PUSH2 0x15FE JUMP JUMPDEST DUP7 SLOAD DUP2 MSTORE PUSH1 0xC0 PUSH1 0xFF PUSH1 0x6 PUSH1 0x1 DUP11 ADD SLOAD SWAP10 DUP10 DUP6 ADD SWAP11 DUP12 MSTORE PUSH1 0x2 DUP2 ADD SLOAD DUP10 DUP7 ADD MSTORE PUSH1 0x3 DUP2 ADD SLOAD PUSH1 0x60 DUP7 ADD MSTORE PUSH1 0x4 DUP2 ADD SLOAD PUSH1 0x80 DUP7 ADD MSTORE PUSH1 0x5 DUP2 ADD SLOAD PUSH1 0xA0 DUP7 ADD MSTORE ADD SLOAD AND ISZERO ISZERO SWAP2 ADD MSTORE PUSH2 0x1DA9 PUSH1 0xFF PUSH1 0x2 DUP6 ADD SLOAD AND PUSH2 0x1C5C JUMP JUMPDEST PUSH1 0x4 DUP4 ADD SWAP2 PUSH2 0x1DCB DUP4 SLOAD SWAP8 PUSH2 0x1DBF DUP10 ISZERO ISZERO PUSH2 0x1C9F JUMP JUMPDEST MLOAD PUSH2 0xAA3 PUSH2 0x1945 PUSH2 0x166F JUMP JUMPDEST SWAP4 DUP1 SLOAD SWAP8 PUSH1 0x5 DUP3 ADD SWAP9 DUP10 SLOAD SWAP1 PUSH2 0x1DE1 DUP3 DUP3 PUSH2 0x18EB JUMP JUMPDEST DUP9 GT PUSH2 0x1F40 JUMPI JUMPDEST POP DUP7 ISZERO PUSH2 0x1EFC JUMPI DUP7 PUSH2 0x1DF9 SWAP2 PUSH2 0x17E1 JUMP JUMPDEST DUP10 SSTORE PUSH1 0x0 NOT DUP2 ADD SWAP1 DUP2 GT PUSH2 0x1EE8 JUMPI DUP6 DUP5 SWAP4 DUP5 SWAP4 DUP5 SWAP4 DUP9 SSTORE PUSH1 0x3 TIMESTAMP SWAP2 ADD SSTORE PUSH2 0x1E22 DUP3 PUSH1 0xA SLOAD PUSH2 0x17E1 JUMP JUMPDEST PUSH1 0xA SSTORE GAS CALL PUSH2 0x1E2F PUSH2 0x1CE3 JUMP JUMPDEST POP ISZERO PUSH2 0x1EA4 JUMPI PUSH32 0x49D60844462CB0F82563EBFF2FC4C84379CEEB1FCE0194C88F01A0A53468CBE1 DUP4 DUP8 SWAP3 SLOAD SWAP4 DUP2 MLOAD SWAP1 DUP2 MSTORE DUP5 DUP8 DUP3 ADD MSTORE LOG2 ISZERO PUSH2 0x1E72 JUMPI JUMPDEST POP POP POP POP JUMP JUMPDEST PUSH32 0xD083BC3CAF9B7A542E44DA341B42CF5F7327D341B62A461623C5B4A59CB95D00 SWAP3 SLOAD SWAP1 MLOAD SWAP1 DUP2 MSTORE LOG2 CODESIZE DUP1 DUP1 DUP1 PUSH2 0x1E6C JUMP JUMPDEST DUP3 MLOAD PUSH3 0x461BCD PUSH1 0xE5 SHL DUP2 MSTORE PUSH1 0x4 DUP2 ADD DUP6 SWAP1 MSTORE PUSH1 0x17 PUSH1 0x24 DUP3 ADD MSTORE PUSH32 0x5061796D656E74207472616E73666572206661696C6564000000000000000000 PUSH1 0x44 DUP3 ADD MSTORE PUSH1 0x64 SWAP1 REVERT JUMPDEST PUSH4 0x4E487B71 PUSH1 0xE0 SHL DUP5 MSTORE PUSH1 0x11 PUSH1 0x4 MSTORE PUSH1 0x24 DUP5 REVERT JUMPDEST DUP8 MLOAD PUSH3 0x461BCD PUSH1 0xE5 SHL DUP2 MSTORE PUSH1 0x4 DUP2 ADD DUP11 SWAP1 MSTORE PUSH1 0x1E PUSH1 0x24 DUP3 ADD MSTORE PUSH32 0x4E6F2066756E647320617661696C61626C6520666F72207061796D656E740000 PUSH1 0x44 DUP3 ADD MSTORE PUSH1 0x64 SWAP1 REVERT JUMPDEST DUP2 SWAP8 POP SWAP1 PUSH2 0x1F4D SWAP2 PUSH2 0x18EB JUMP JUMPDEST SWAP6 CODESIZE PUSH2 0x1DE8 JUMP JUMPDEST PUSH1 0x1 DUP1 PUSH1 0xA0 SHL SUB AND PUSH1 0x0 MSTORE PUSH1 0x3 PUSH1 0x20 MSTORE PUSH1 0x40 PUSH1 0x0 KECCAK256 PUSH1 0x40 MLOAD PUSH2 0x1F75 DUP2 PUSH2 0x161A JUMP JUMPDEST DUP2 SLOAD SWAP1 DUP2 DUP2 MSTORE PUSH1 0xA0 PUSH1 0x5 PUSH1 0x1 DUP6 ADD SLOAD SWAP5 DUP6 PUSH1 0x20 DUP6 ADD MSTORE PUSH1 0xFF PUSH1 0x2 DUP3 ADD SLOAD AND ISZERO ISZERO PUSH1 0x40 DUP6 ADD MSTORE PUSH1 0x3 DUP2 ADD SLOAD PUSH1 0x60 DUP6 ADD MSTORE PUSH1 0x4 DUP2 ADD SLOAD PUSH1 0x80 DUP6 ADD MSTORE ADD SLOAD SWAP2 ADD MSTORE DUP2 DUP2 LT ISZERO PUSH2 0x1FC7 JUMPI PUSH2 0x1FC4 SWAP2 PUSH2 0x18EB JUMP JUMPDEST SWAP1 JUMP JUMPDEST POP POP PUSH1 0x0 SWAP1 JUMP JUMPDEST SWAP2 DUP3 ISZERO PUSH2 0x2071 JUMPI PUSH2 0x1FFF DUP3 ISZERO SWAP4 PUSH2 0x1FE5 DUP6 ISZERO PUSH2 0x17EE JUMP JUMPDEST PUSH2 0x193A PUSH2 0x2710 PUSH2 0x1FF7 DUP2 DUP7 GT ISZERO PUSH2 0x1849 JUMP JUMPDEST DUP8 GT ISZERO PUSH2 0x1895 JUMP JUMPDEST SWAP3 PUSH1 0xC DUP4 MUL SWAP3 DUP4 DIV PUSH1 0xC EQ OR ISZERO PUSH2 0x882 JUMPI PUSH8 0xDE0B6B3A7640000 SWAP4 PUSH1 0x0 SWAP2 DUP2 DUP2 GT ISZERO PUSH2 0x206A JUMPI PUSH2 0x202F SWAP3 POP PUSH2 0x18EB JUMP JUMPDEST DUP1 ISZERO PUSH2 0x205C JUMPI SWAP2 PUSH2 0xAA3 PUSH2 0x2054 SWAP3 PUSH2 0x204E PUSH1 0xC PUSH2 0x19BA SWAP7 DIV SWAP2 DUP3 PUSH2 0x20C7 JUMP JUMPDEST SWAP3 PUSH2 0x17AE JUMP JUMPDEST PUSH2 0x1074 PUSH2 0x166F JUMP JUMPDEST POP PUSH2 0x2054 SWAP1 PUSH2 0x19BA SWAP3 PUSH2 0x17C1 JUMP JUMPDEST POP POP PUSH2 0x202F JUMP JUMPDEST PUSH1 0x40 MLOAD PUSH3 0x461BCD PUSH1 0xE5 SHL DUP2 MSTORE PUSH1 0x20 PUSH1 0x4 DUP3 ADD MSTORE PUSH1 0x28 PUSH1 0x24 DUP3 ADD MSTORE PUSH32 0x496E766573746D656E7420616D6F756E74206D75737420626520677265617465 PUSH1 0x44 DUP3 ADD MSTORE PUSH8 0x72207468616E203 PUSH1 0xC4 SHL PUSH1 0x64 DUP3 ADD MSTORE PUSH1 0x84 SWAP1 REVERT JUMPDEST SWAP1 DUP2 ISZERO PUSH2 0x211D JUMPI PUSH2 0x2710 DUP3 DUP2 ADD SWAP2 DUP3 DUP3 GT PUSH2 0x882 JUMPI PUSH1 0x1 DUP4 JUMPDEST DUP3 DUP3 LT PUSH2 0x2107 JUMPI POP POP DUP1 DUP3 MUL SWAP2 DUP3 DIV SUB PUSH2 0x882 JUMPI PUSH2 0x1FC4 SWAP3 PUSH2 0x2101 SWAP2 PUSH2 0x17C1 JUMP JUMPDEST SWAP1 PUSH2 0x18EB JUMP JUMPDEST SWAP1 SWAP4 DUP4 PUSH2 0x1B63 DUP4 PUSH2 0x2117 SWAP4 PUSH2 0x17AE JUMP JUMPDEST SWAP1 PUSH2 0x20E0 JUMP JUMPDEST PUSH2 0x2710 DUP1 DUP3 MUL SWAP3 POP DUP2 ISZERO SWAP2 DUP4 DIV EQ OR ISZERO PUSH2 0x882 JUMPI SWAP1 JUMP INVALID LOG2 PUSH5 0x6970667358 0x22 SLT KECCAK256 SELFBALANCE 0xBE CALLDATACOPY 0xD4 LOG0 0xEF 0xC7 EXTCODESIZE CREATE DUP13 LOG1 SWAP14 0xC CALLDATALOAD BASEFEE LOG2 PUSH5 0xD09634F918 0xF8 0x4D MULMOD 0xB7 0x2D 0xE6 0x4F 0xE3 SWAP15 0xB7 PUSH5 0x736F6C6343 STOP ADDMOD EQ STOP CALLER "},"methodIdentifiers":{"BASIS_POINTS()":"e1f1c4a7","ETH_DECIMALS()":"92cd1ff2","MONTHS_PER_YEAR()":"50af6d08","PRICE_UPDATE_INTERVAL()":"ee937e82","SECONDS_PER_MONTH()":"10786deb","SECONDS_PER_YEAR()":"e6a69ab8","USD_SCALE()":"f96d0baa","calculateAnnuityFactor(uint256,uint256)":"a8acc046","calculateInflationMultiplier(uint256,uint256)":"35e99a9d","calculateMonthlyPayment(uint256,uint256,uint256,uint256)":"355eb7fc","calculatePower(uint256,uint256)":"f979f269","calculatePresentValue(uint256,uint256,uint256)":"b63fa86f","calculateRequiredInvestment(uint256,uint256,uint256,uint256,uint256,uint256)":"4df97db5","createRetirementPlan(uint256,uint256,uint256,uint256,uint256,uint256)":"3f328296","deactivateRetirementPlan()":"1e249529","defaultInflationRate()":"792dc665","defaultYieldRate()":"cfb049ef","depositFunds()":"e2c41dbc","ethUsdPriceFeed()":"42f6fb29","executeMonthlyPayment(address)":"49833b17","getEthUsdPrice()":"a0a8045e","getRemainingAmount(address)":"faf7eba6","getRequiredInvestment(address)":"6f618fe2","getRetirementPlan(address)":"e57b9d5b","getUserSavings(address)":"f80a2057","hasReachedTarget(address)":"a48da6c9","historicalYields(uint256)":"14d0d3cd","lastPriceUpdateBlock()":"65a2d701","owner()":"8da5cb5b","renounceOwnership()":"715018a6","retirementPlans(address)":"5f39e7f0","totalFundsUnderManagement()":"6dc1da24","totalPaymentsProcessed()":"37e32d1d","transferOwnership(address)":"f2fde38b","updatePriceFeed()":"0dd919d2","updateRetirementPlan(uint256,uint256,uint256,uint256,uint256,uint256)":"180459cd","usdToWei(uint256)":"a6a86130","userSavings(address)":"b848108a","weiToUsd(uint256)":"8c733fdf","withdrawFunds()":"24600fc3"}}}}}