{
  "_format": "hh-sol-artifact-1",
  "contractName": "RetirementCalculator",
  "sourceName": "contracts/RetirementCalculator.sol",
  "abi": [
    {
      "inputs": [
        {
          "internalType": "address",
          "name": "_ethUsdPriceFeed",
          "type": "address"
        },
        {
          "internalType": "address",
          "name": "initialOwner",
          "type": "address"
        }
      ],
      "stateMutability": "nonpayable",
      "type": "constructor"
    },
    {
      "inputs": [
        {
          "internalType": "address",
          "name": "owner",
          "type": "address"
        }
      ],
      "name": "OwnableInvalidOwner",
      "type": "error"
    },
    {
      "inputs": [
        {
          "internalType": "address",
          "name": "account",
          "type": "address"
        }
      ],
      "name": "OwnableUnauthorizedAccount",
      "type": "error"
    },
    {
      "inputs": [],
      "name": "ReentrancyGuardReentrantCall",
      "type": "error"
    },
    {
      "anonymous": false,
      "inputs": [
        {
          "indexed": true,
          "internalType": "address",
          "name": "user",
          "type": "address"
        },
        {
          "indexed": false,
          "internalType": "uint256",
          "name": "amount",
          "type": "uint256"
        },
        {
          "indexed": false,
          "internalType": "uint256",
          "name": "totalDeposited",
          "type": "uint256"
        },
        {
          "indexed": false,
          "internalType": "uint256",
          "name": "targetAmount",
          "type": "uint256"
        }
      ],
      "name": "FundsDeposited",
      "type": "event"
    },
    {
      "anonymous": false,
      "inputs": [
        {
          "indexed": true,
          "internalType": "address",
          "name": "user",
          "type": "address"
        },
        {
          "indexed": false,
          "internalType": "uint256",
          "name": "amount",
          "type": "uint256"
        },
        {
          "indexed": false,
          "internalType": "uint256",
          "name": "paymentsRemaining",
          "type": "uint256"
        }
      ],
      "name": "MonthlyPaymentSent",
      "type": "event"
    },
    {
      "anonymous": false,
      "inputs": [
        {
          "indexed": true,
          "internalType": "address",
          "name": "previousOwner",
          "type": "address"
        },
        {
          "indexed": true,
          "internalType": "address",
          "name": "newOwner",
          "type": "address"
        }
      ],
      "name": "OwnershipTransferred",
      "type": "event"
    },
    {
      "anonymous": false,
      "inputs": [
        {
          "indexed": true,
          "internalType": "address",
          "name": "user",
          "type": "address"
        },
        {
          "indexed": false,
          "internalType": "uint256",
          "name": "totalPaidOut",
          "type": "uint256"
        }
      ],
      "name": "PaymentsCompleted",
      "type": "event"
    },
    {
      "anonymous": false,
      "inputs": [
        {
          "indexed": false,
          "internalType": "uint256",
          "name": "blockNumber",
          "type": "uint256"
        },
        {
          "indexed": false,
          "internalType": "uint256",
          "name": "ethPriceUSD",
          "type": "uint256"
        }
      ],
      "name": "PriceFeedUpdated",
      "type": "event"
    },
    {
      "anonymous": false,
      "inputs": [
        {
          "indexed": true,
          "internalType": "address",
          "name": "user",
          "type": "address"
        },
        {
          "indexed": false,
          "internalType": "uint256",
          "name": "requiredInvestment",
          "type": "uint256"
        }
      ],
      "name": "RetirementPlanCreated",
      "type": "event"
    },
    {
      "anonymous": false,
      "inputs": [
        {
          "indexed": true,
          "internalType": "address",
          "name": "user",
          "type": "address"
        },
        {
          "indexed": false,
          "internalType": "uint256",
          "name": "newRequiredInvestment",
          "type": "uint256"
        }
      ],
      "name": "RetirementPlanUpdated",
      "type": "event"
    },
    {
      "anonymous": false,
      "inputs": [
        {
          "indexed": true,
          "internalType": "address",
          "name": "user",
          "type": "address"
        },
        {
          "indexed": false,
          "internalType": "uint256",
          "name": "targetAmount",
          "type": "uint256"
        }
      ],
      "name": "TargetReached",
      "type": "event"
    },
    {
      "anonymous": false,
      "inputs": [
        {
          "indexed": false,
          "internalType": "uint256",
          "name": "timestamp",
          "type": "uint256"
        },
        {
          "indexed": false,
          "internalType": "uint256",
          "name": "yieldRate",
          "type": "uint256"
        }
      ],
      "name": "YieldRateUpdated",
      "type": "event"
    },
    {
      "inputs": [],
      "name": "BASIS_POINTS",
      "outputs": [
        {
          "internalType": "uint256",
          "name": "",
          "type": "uint256"
        }
      ],
      "stateMutability": "view",
      "type": "function"
    },
    {
      "inputs": [],
      "name": "ETH_DECIMALS",
      "outputs": [
        {
          "internalType": "uint256",
          "name": "",
          "type": "uint256"
        }
      ],
      "stateMutability": "view",
      "type": "function"
    },
    {
      "inputs": [],
      "name": "MONTHS_PER_YEAR",
      "outputs": [
        {
          "internalType": "uint256",
          "name": "",
          "type": "uint256"
        }
      ],
      "stateMutability": "view",
      "type": "function"
    },
    {
      "inputs": [],
      "name": "PRICE_UPDATE_INTERVAL",
      "outputs": [
        {
          "internalType": "uint256",
          "name": "",
          "type": "uint256"
        }
      ],
      "stateMutability": "view",
      "type": "function"
    },
    {
      "inputs": [],
      "name": "SECONDS_PER_MONTH",
      "outputs": [
        {
          "internalType": "uint256",
          "name": "",
          "type": "uint256"
        }
      ],
      "stateMutability": "view",
      "type": "function"
    },
    {
      "inputs": [],
      "name": "SECONDS_PER_YEAR",
      "outputs": [
        {
          "internalType": "uint256",
          "name": "",
          "type": "uint256"
        }
      ],
      "stateMutability": "view",
      "type": "function"
    },
    {
      "inputs": [],
      "name": "USD_SCALE",
      "outputs": [
        {
          "internalType": "uint256",
          "name": "",
          "type": "uint256"
        }
      ],
      "stateMutability": "view",
      "type": "function"
    },
    {
      "inputs": [
        {
          "internalType": "uint256",
          "name": "monthlyRate",
          "type": "uint256"
        },
        {
          "internalType": "uint256",
          "name": "months",
          "type": "uint256"
        }
      ],
      "name": "calculateAnnuityFactor",
      "outputs": [
        {
          "internalType": "uint256",
          "name": "factor",
          "type": "uint256"
        }
      ],
      "stateMutability": "pure",
      "type": "function"
    },
    {
      "inputs": [
        {
          "internalType": "uint256",
          "name": "inflationRate",
          "type": "uint256"
        },
        {
          "internalType": "uint256",
          "name": "months",
          "type": "uint256"
        }
      ],
      "name": "calculateInflationMultiplier",
      "outputs": [
        {
          "internalType": "uint256",
          "name": "multiplier",
          "type": "uint256"
        }
      ],
      "stateMutability": "pure",
      "type": "function"
    },
    {
      "inputs": [
        {
          "internalType": "uint256",
          "name": "investmentAmountUSD",
          "type": "uint256"
        },
        {
          "internalType": "uint256",
          "name": "lifeExpectancyYears",
          "type": "uint256"
        },
        {
          "internalType": "uint256",
          "name": "yieldRate",
          "type": "uint256"
        },
        {
          "internalType": "uint256",
          "name": "inflationRate",
          "type": "uint256"
        }
      ],
      "name": "calculateMonthlyPayment",
      "outputs": [
        {
          "internalType": "uint256",
          "name": "monthlyPaymentUSD",
          "type": "uint256"
        }
      ],
      "stateMutability": "view",
      "type": "function"
    },
    {
      "inputs": [
        {
          "internalType": "uint256",
          "name": "base",
          "type": "uint256"
        },
        {
          "internalType": "uint256",
          "name": "exponent",
          "type": "uint256"
        }
      ],
      "name": "calculatePower",
      "outputs": [
        {
          "internalType": "uint256",
          "name": "result",
          "type": "uint256"
        }
      ],
      "stateMutability": "pure",
      "type": "function"
    },
    {
      "inputs": [
        {
          "internalType": "uint256",
          "name": "futureValue",
          "type": "uint256"
        },
        {
          "internalType": "uint256",
          "name": "annualRate",
          "type": "uint256"
        },
        {
          "internalType": "uint256",
          "name": "months",
          "type": "uint256"
        }
      ],
      "name": "calculatePresentValue",
      "outputs": [
        {
          "internalType": "uint256",
          "name": "presentValue",
          "type": "uint256"
        }
      ],
      "stateMutability": "pure",
      "type": "function"
    },
    {
      "inputs": [
        {
          "internalType": "uint256",
          "name": "lifeExpectancyYears",
          "type": "uint256"
        },
        {
          "internalType": "uint256",
          "name": "monthlySpendingUSD",
          "type": "uint256"
        },
        {
          "internalType": "uint256",
          "name": "retirementAge",
          "type": "uint256"
        },
        {
          "internalType": "uint256",
          "name": "currentAge",
          "type": "uint256"
        },
        {
          "internalType": "uint256",
          "name": "yieldRate",
          "type": "uint256"
        },
        {
          "internalType": "uint256",
          "name": "inflationRate",
          "type": "uint256"
        }
      ],
      "name": "calculateRequiredInvestment",
      "outputs": [
        {
          "internalType": "uint256",
          "name": "requiredInvestment",
          "type": "uint256"
        }
      ],
      "stateMutability": "view",
      "type": "function"
    },
    {
      "inputs": [
        {
          "internalType": "uint256",
          "name": "lifeExpectancyYears",
          "type": "uint256"
        },
        {
          "internalType": "uint256",
          "name": "monthlySpendingUSD",
          "type": "uint256"
        },
        {
          "internalType": "uint256",
          "name": "retirementAge",
          "type": "uint256"
        },
        {
          "internalType": "uint256",
          "name": "currentAge",
          "type": "uint256"
        },
        {
          "internalType": "uint256",
          "name": "yieldRate",
          "type": "uint256"
        },
        {
          "internalType": "uint256",
          "name": "inflationRate",
          "type": "uint256"
        }
      ],
      "name": "createRetirementPlan",
      "outputs": [],
      "stateMutability": "nonpayable",
      "type": "function"
    },
    {
      "inputs": [],
      "name": "deactivateRetirementPlan",
      "outputs": [],
      "stateMutability": "nonpayable",
      "type": "function"
    },
    {
      "inputs": [],
      "name": "defaultInflationRate",
      "outputs": [
        {
          "internalType": "uint256",
          "name": "",
          "type": "uint256"
        }
      ],
      "stateMutability": "view",
      "type": "function"
    },
    {
      "inputs": [],
      "name": "defaultYieldRate",
      "outputs": [
        {
          "internalType": "uint256",
          "name": "",
          "type": "uint256"
        }
      ],
      "stateMutability": "view",
      "type": "function"
    },
    {
      "inputs": [],
      "name": "depositFunds",
      "outputs": [],
      "stateMutability": "payable",
      "type": "function"
    },
    {
      "inputs": [],
      "name": "ethUsdPriceFeed",
      "outputs": [
        {
          "internalType": "contract AggregatorV3Interface",
          "name": "",
          "type": "address"
        }
      ],
      "stateMutability": "view",
      "type": "function"
    },
    {
      "inputs": [
        {
          "internalType": "address",
          "name": "user",
          "type": "address"
        }
      ],
      "name": "executeMonthlyPayment",
      "outputs": [],
      "stateMutability": "nonpayable",
      "type": "function"
    },
    {
      "inputs": [],
      "name": "getEthUsdPrice",
      "outputs": [
        {
          "internalType": "uint256",
          "name": "price",
          "type": "uint256"
        }
      ],
      "stateMutability": "view",
      "type": "function"
    },
    {
      "inputs": [
        {
          "internalType": "address",
          "name": "user",
          "type": "address"
        }
      ],
      "name": "getRemainingAmount",
      "outputs": [
        {
          "internalType": "uint256",
          "name": "remaining",
          "type": "uint256"
        }
      ],
      "stateMutability": "view",
      "type": "function"
    },
    {
      "inputs": [
        {
          "internalType": "address",
          "name": "user",
          "type": "address"
        }
      ],
      "name": "getRequiredInvestment",
      "outputs": [
        {
          "internalType": "uint256",
          "name": "requiredInvestment",
          "type": "uint256"
        }
      ],
      "stateMutability": "view",
      "type": "function"
    },
    {
      "inputs": [
        {
          "internalType": "address",
          "name": "user",
          "type": "address"
        }
      ],
      "name": "getRetirementPlan",
      "outputs": [
        {
          "components": [
            {
              "internalType": "uint256",
              "name": "lifeExpectancyYears",
              "type": "uint256"
            },
            {
              "internalType": "uint256",
              "name": "monthlySpendingUSD",
              "type": "uint256"
            },
            {
              "internalType": "uint256",
              "name": "retirementAge",
              "type": "uint256"
            },
            {
              "internalType": "uint256",
              "name": "currentAge",
              "type": "uint256"
            },
            {
              "internalType": "uint256",
              "name": "expectedYieldRate",
              "type": "uint256"
            },
            {
              "internalType": "uint256",
              "name": "inflationRate",
              "type": "uint256"
            },
            {
              "internalType": "bool",
              "name": "isActive",
              "type": "bool"
            }
          ],
          "internalType": "struct RetirementCalculator.RetirementPlan",
          "name": "plan",
          "type": "tuple"
        }
      ],
      "stateMutability": "view",
      "type": "function"
    },
    {
      "inputs": [
        {
          "internalType": "address",
          "name": "user",
          "type": "address"
        }
      ],
      "name": "getUserSavings",
      "outputs": [
        {
          "components": [
            {
              "internalType": "uint256",
              "name": "totalDeposited",
              "type": "uint256"
            },
            {
              "internalType": "uint256",
              "name": "targetAmount",
              "type": "uint256"
            },
            {
              "internalType": "bool",
              "name": "paymentsStarted",
              "type": "bool"
            },
            {
              "internalType": "uint256",
              "name": "lastPaymentTime",
              "type": "uint256"
            },
            {
              "internalType": "uint256",
              "name": "paymentsRemaining",
              "type": "uint256"
            },
            {
              "internalType": "uint256",
              "name": "totalPaidOut",
              "type": "uint256"
            }
          ],
          "internalType": "struct RetirementCalculator.UserSavings",
          "name": "savings",
          "type": "tuple"
        }
      ],
      "stateMutability": "view",
      "type": "function"
    },
    {
      "inputs": [
        {
          "internalType": "address",
          "name": "user",
          "type": "address"
        }
      ],
      "name": "hasReachedTarget",
      "outputs": [
        {
          "internalType": "bool",
          "name": "reached",
          "type": "bool"
        }
      ],
      "stateMutability": "view",
      "type": "function"
    },
    {
      "inputs": [
        {
          "internalType": "uint256",
          "name": "",
          "type": "uint256"
        }
      ],
      "name": "historicalYields",
      "outputs": [
        {
          "internalType": "uint256",
          "name": "",
          "type": "uint256"
        }
      ],
      "stateMutability": "view",
      "type": "function"
    },
    {
      "inputs": [],
      "name": "lastPriceUpdateBlock",
      "outputs": [
        {
          "internalType": "uint256",
          "name": "",
          "type": "uint256"
        }
      ],
      "stateMutability": "view",
      "type": "function"
    },
    {
      "inputs": [],
      "name": "owner",
      "outputs": [
        {
          "internalType": "address",
          "name": "",
          "type": "address"
        }
      ],
      "stateMutability": "view",
      "type": "function"
    },
    {
      "inputs": [],
      "name": "renounceOwnership",
      "outputs": [],
      "stateMutability": "nonpayable",
      "type": "function"
    },
    {
      "inputs": [
        {
          "internalType": "address",
          "name": "",
          "type": "address"
        }
      ],
      "name": "retirementPlans",
      "outputs": [
        {
          "internalType": "uint256",
          "name": "lifeExpectancyYears",
          "type": "uint256"
        },
        {
          "internalType": "uint256",
          "name": "monthlySpendingUSD",
          "type": "uint256"
        },
        {
          "internalType": "uint256",
          "name": "retirementAge",
          "type": "uint256"
        },
        {
          "internalType": "uint256",
          "name": "currentAge",
          "type": "uint256"
        },
        {
          "internalType": "uint256",
          "name": "expectedYieldRate",
          "type": "uint256"
        },
        {
          "internalType": "uint256",
          "name": "inflationRate",
          "type": "uint256"
        },
        {
          "internalType": "bool",
          "name": "isActive",
          "type": "bool"
        }
      ],
      "stateMutability": "view",
      "type": "function"
    },
    {
      "inputs": [],
      "name": "totalFundsUnderManagement",
      "outputs": [
        {
          "internalType": "uint256",
          "name": "",
          "type": "uint256"
        }
      ],
      "stateMutability": "view",
      "type": "function"
    },
    {
      "inputs": [],
      "name": "totalPaymentsProcessed",
      "outputs": [
        {
          "internalType": "uint256",
          "name": "",
          "type": "uint256"
        }
      ],
      "stateMutability": "view",
      "type": "function"
    },
    {
      "inputs": [
        {
          "internalType": "address",
          "name": "newOwner",
          "type": "address"
        }
      ],
      "name": "transferOwnership",
      "outputs": [],
      "stateMutability": "nonpayable",
      "type": "function"
    },
    {
      "inputs": [],
      "name": "updatePriceFeed",
      "outputs": [],
      "stateMutability": "nonpayable",
      "type": "function"
    },
    {
      "inputs": [
        {
          "internalType": "uint256",
          "name": "lifeExpectancyYears",
          "type": "uint256"
        },
        {
          "internalType": "uint256",
          "name": "monthlySpendingUSD",
          "type": "uint256"
        },
        {
          "internalType": "uint256",
          "name": "retirementAge",
          "type": "uint256"
        },
        {
          "internalType": "uint256",
          "name": "currentAge",
          "type": "uint256"
        },
        {
          "internalType": "uint256",
          "name": "yieldRate",
          "type": "uint256"
        },
        {
          "internalType": "uint256",
          "name": "inflationRate",
          "type": "uint256"
        }
      ],
      "name": "updateRetirementPlan",
      "outputs": [],
      "stateMutability": "nonpayable",
      "type": "function"
    },
    {
      "inputs": [
        {
          "internalType": "uint256",
          "name": "usdAmount",
          "type": "uint256"
        }
      ],
      "name": "usdToWei",
      "outputs": [
        {
          "internalType": "uint256",
          "name": "weiAmount",
          "type": "uint256"
        }
      ],
      "stateMutability": "view",
      "type": "function"
    },
    {
      "inputs": [
        {
          "internalType": "address",
          "name": "",
          "type": "address"
        }
      ],
      "name": "userSavings",
      "outputs": [
        {
          "internalType": "uint256",
          "name": "totalDeposited",
          "type": "uint256"
        },
        {
          "internalType": "uint256",
          "name": "targetAmount",
          "type": "uint256"
        },
        {
          "internalType": "bool",
          "name": "paymentsStarted",
          "type": "bool"
        },
        {
          "internalType": "uint256",
          "name": "lastPaymentTime",
          "type": "uint256"
        },
        {
          "internalType": "uint256",
          "name": "paymentsRemaining",
          "type": "uint256"
        },
        {
          "internalType": "uint256",
          "name": "totalPaidOut",
          "type": "uint256"
        }
      ],
      "stateMutability": "view",
      "type": "function"
    },
    {
      "inputs": [
        {
          "internalType": "uint256",
          "name": "weiAmount",
          "type": "uint256"
        }
      ],
      "name": "weiToUsd",
      "outputs": [
        {
          "internalType": "uint256",
          "name": "usdAmount",
          "type": "uint256"
        }
      ],
      "stateMutability": "view",
      "type": "function"
    },
    {
      "inputs": [],
      "name": "withdrawFunds",
      "outputs": [],
      "stateMutability": "nonpayable",
      "type": "function"
    },
    {
      "stateMutability": "payable",
      "type": "receive"
    }
  ],
  "bytecode": "0x6080346200015357620022ee90601f38839003908101601f19168201906001600160401b038211838310176200015857808391604095869485528339810103126200015357602062000051826200016e565b916001600160a01b039182916200006991016200016e565b169081156200013b57600080546001600160a01b0319808216851783558651929492939092909182167f8be0079c531659141344cd1fd0a4f28419497f9722a3daafe3b4186f6b6457e08680a3600180556101f4948560075560c860085516918215620000f9575090849291600554161760055543600655428152600460205220555161216a9081620001848239f35b62461bcd60e51b815260206004820152601a60248201527f496e76616c6964207072696365206665656420616464726573730000000000006044820152606490fd5b8351631e4fbdf760e01b815260006004820152602490fd5b600080fd5b634e487b7160e01b600052604160045260246000fd5b51906001600160a01b0382168203620001535756fe608080604052600436101561001d575b50361561001b57600080fd5b005b60003560e01c9081630dd919d2146114f15750806310786deb146114d357806314d0d3cd146114a7578063180459cd1461130e5780631e2495291461125557806324600fc3146110ba578063355eb7fc1461109357806335e99a9d1461106157806337e32d1d146110435780633f32829614610ed857806342f6fb2914610eaf57806349833b1714610deb5780634df97db514610dcc57806350af6d0814610db05780635f39e7f014610d2c57806365a2d70114610d0e5780636dc1da2414610cf05780636f618fe214610c40578063715018a614610be7578063792dc66514610bc95780638c733fdf14610b915780638da5cb5b14610b6857806392cd1ff214610b4c578063a0a8045e14610b31578063a48da6c914610aa8578063a6a8613014610a7a578063a8acc04614610a61578063b63fa86f14610a3d578063b848108a146109c3578063cfb049ef146109a5578063e1f1c4a714610988578063e2c41dbc146104f7578063e57b9d5b14610400578063e6a69ab8146103e1578063ee937e82146103c4578063f2fde38b14610334578063f80a205714610256578063f96d0baa14610237578063f979f2691461021e5763faf7eba6146101e2573861000f565b34610219576020366003190112610219576004356001600160a01b038116810361021957610211602091611f54565b604051908152f35b600080fd5b34610219576020610211610231366115bc565b90611b2b565b346102195760003660031901126102195760206040516305f5e1008152f35b34610219576020366003190112610219576004356001600160a01b0381169081900361021957600060a060405161028c8161161a565b8281528260208201528260408201528260608201528260808201520152600052600360205260c060406000206040516102c48161161a565b81549182825260018101546020830190815260ff6002830154166040840190151581526003830154916060850192835260a06005600486015495608088019687520154950194855260405195865251602086015251151560408501525160608401525160808301525160a0820152f35b34610219576020366003190112610219576004356001600160a01b0381811691829003610219576103636115d2565b81156103ab57600054826bffffffffffffffffffffffff60a01b821617600055167f8be0079c531659141344cd1fd0a4f28419497f9722a3daafe3b4186f6b6457e0600080a3005b604051631e4fbdf760e01b815260006004820152602490fd5b34610219576000366003190112610219576020604051611c208152f35b346102195760003660031901126102195760206040516301e133808152f35b34610219576020366003190112610219576004356001600160a01b0381169081900361021957600060c0604051610436816115fe565b8281528260208201528260408201528260608201528260808201528260a08201520152600052600260205260e06040600020604051610474816115fe565b815491828252600181015460208301908152600282015460408401908152600383015490606085019182526004840154926080860193845260c060ff600660058801549760a08a01988952015416960195151586526040519687525160208701525160408601525160608501525160808401525160a083015251151560c0820152f35b60003660031901126102195761050b611c39565b33600052600260205261052860ff60066040600020015416611bed565b34156109435733600052600360205260ff600260406000200154166108f05733600052600360205260406000206105603482546117e1565b815561056e346009546117e1565b60095580549060019182820190815460405191348352602083015260408201527f7443ec926982faa56fcbb790a54be84e5fa371b9503fa0daa5ba36c6f122627560603392a26040516060810181811067ffffffffffffffff82111761084057604052600281526020810160403682376040516315ab88c960e31b8152602081600481737a250d5630b4cf539739df2c5dacb4c659f2488d5afa908115610856576000916108ae575b50825115610898576001600160a01b031681528151851015610898577318084fba666a33d37592fa2633fd49a74dd93a8860408301526104b042018042116108825791604051928391637ff36ab560e01b8352608483019060006004850152608060248501525180915260a48301939060005b89828210610862575050505060009282913060448401526064830152038134737a250d5630b4cf539739df2c5dacb4c659f2488d5af18015610856576107aa575b50815490541115908161079a575b506106e2578055005b3360005260036020528060406000206002602052604060002060c060ff60066040519361070e856115fe565b80548552868101546020860152600281015460408601526003810154606086015260048101546080860152600581015460a08601520154161515910152600281018260ff1982541617905542600382015501546040519081527f2690b5d1cbd39f0f98b3c8a68037ce919dae4fa96fdab3cdc287a633d393a66260203392a261079633611d23565b8055005b60ff9150600201541615826106d9565b3d806000833e6107ba8183611636565b8101906020818303126102195780519067ffffffffffffffff8211610219570181601f820112156102195780519067ffffffffffffffff8211610840576020808360051b936040519061080f83870183611636565b8152019282010192831161021957602001905b8282106108305750506106cb565b8151815260209182019101610822565b634e487b7160e01b600052604160045260246000fd5b6040513d6000823e3d90fd5b83516001600160a01b03168752602096870196889650909301920161068a565b634e487b7160e01b600052601160045260246000fd5b634e487b7160e01b600052603260045260246000fd5b90506020813d6020116108e8575b816108c960209383611636565b8101031261021957516001600160a01b03811681036102195786610617565b3d91506108bc565b60405162461bcd60e51b815260206004820152602560248201527f43616e6e6f74206465706f736974206166746572207061796d656e7473207374604482015264185c9d195960da1b6064820152608490fd5b60405162461bcd60e51b815260206004820152601760248201527f4d757374206465706f73697420736f6d652066756e64730000000000000000006044820152606490fd5b346102195760003660031901126102195760206040516127108152f35b34610219576000366003190112610219576020600754604051908152f35b34610219576020366003190112610219576004356001600160a01b0381169081900361021957600052600360205260c0604060002080549060018101549060ff60028201541660038201549060056004840154930154936040519586526020860152151560408501526060840152608083015260a0820152f35b34610219576060366003190112610219576020610211604435602435600435611b7c565b34610219576020610211610a74366115bc565b906120c7565b34610219576020366003190112610219576020610211610a9861166f565b610aa3600435611791565b6117c1565b34610219576020366003190112610219576004356001600160a01b038116908190036102195760005260036020526020604060002060405190610aea8261161a565b80549182815260a06005600184015493848785015260ff60028201541615156040850152600381015460608501526004810154608085015201549101526040519110158152f35b3461021957600036600319011261021957602061021161166f565b3461021957600036600319011261021957602060405160128152f35b34610219576000366003190112610219576000546040516001600160a01b039091168152602090f35b34610219576020366003190112610219576020670de0b6b3a7640000610bc0610bb861166f565b6004356117ae565b04604051908152f35b34610219576000366003190112610219576020600854604051908152f35b3461021957600036600319011261021957610c006115d2565b600080546001600160a01b0319811682556001600160a01b03167f8be0079c531659141344cd1fd0a4f28419497f9722a3daafe3b4186f6b6457e08280a3005b34610219576020366003190112610219576004356001600160a01b038116908190036102195760005260026020526020610211604060002060405190610c85826115fe565b805482526001810154918481019283526002820154604082019081526003830154906060830191825260048401549260808101938452610cdf60ff600660058801549760a0850198895201541615158060c0840152611bed565b5194519051915192519351946118f8565b34610219576000366003190112610219576020600954604051908152f35b34610219576000366003190112610219576020600654604051908152f35b34610219576020366003190112610219576004356001600160a01b0381169081900361021957600052600260205260e060406000208054906001810154906002810154600382015460048301549160ff600660058601549501541694604051968752602087015260408601526060850152608084015260a0830152151560c0820152f35b34610219576000366003190112610219576020604051600c8152f35b34610219576020610211610ddf36611596565b949390939291926118f8565b34610219576020366003190112610219576004356001600160a01b03811680820361021957610e18611c39565b600052600360205260036040600020610e3760ff600283015416611c5c565b610e4660048201541515611c9f565b015462278d008101809111610882574210610e6a57610e6490611d23565b60018055005b60405162461bcd60e51b815260206004820152601a60248201527f546f6f206561726c7920666f72206e657874207061796d656e740000000000006044820152606490fd5b34610219576000366003190112610219576005546040516001600160a01b039091168152602090f35b3461021957610f836006610eeb36611596565b90610f0082828587898b9c999a989d9b6118f8565b9760405195610f0e876115fe565b8887526020870194855260408701908152606087019182526080870192835260a0870193845260c08701946001865233600052600260205260406000209751885551600188015551600287015551600386015551600485015551600584015551151591019060ff801983541691151516179055565b600c810290808204600c149015171561088257600560405191610fa58361161a565b60008352602083019084825260408401600081526110056060860191600083526080870193845260a087019460008652336000526003602052604060002097518855516001880155511515600287019060ff801983541691151516179055565b516003850155516004840155519101556040519081527f0512e2ea4790ae5cb1260ba59a21ad4eb7a682e81375238a785fc80e1607c1ba60203392a2005b34610219576000366003190112610219576020600a54604051908152f35b3461021957600c61107a611074366115bc565b906117ae565b0461271090810180911161088257602090604051908152f35b34610219576080366003190112610219576020610211606435604435602435600435611fce565b34610219576000366003190112610219576110d3611c39565b3360005260206002815260ff6006604060002001541661121157336000526003815260ff600260406000200154166111be5733600052600381526040600020805490811561118257600080809381809455611130816009546118eb565b600955335af161113e611ce3565b501561114a5760018055005b6064906040519062461bcd60e51b82526004820152601160248201527015da5d1a191c985dd85b0819985a5b1959607a1b6044820152fd5b60405162461bcd60e51b81526004810184905260146024820152734e6f2066756e647320746f20776974686472617760601b6044820152606490fd5b6084906040519062461bcd60e51b82526004820152602660248201527f43616e6e6f74207769746864726177206166746572207061796d656e747320736044820152651d185c9d195960d21b6064820152fd5b6064906040519062461bcd60e51b82526004820152601e60248201527f506c616e206d75737420626520646561637469766174656420666972737400006044820152fd5b346102195760003660031901126102195733600052600260205261128360ff60066040600020015416611bed565b33600052600360205260ff600260406000200154166112b857336000908152600260205260409020600601805460ff19169055005b60405162461bcd60e51b815260206004820152602860248201527f43616e6e6f742064656163746976617465206166746572207061796d656e7473604482015267081cdd185c9d195960c21b6064820152608490fd5b346102195761131c36611596565b949390929194336000526020936002855261134160ff60066040600020015416611bed565b336000526003855260ff600260406000200154166114505791818361137060069487968b6113f199878d6118f8565b986040519561137e876115fe565b89875288870194855260408701908152606087019182526080870192835260a0870193845260c0870194600186523360005260028a5260406000209751885551600188015551600287015551600386015551600485015551600584015551151591019060ff801983541691151516179055565b6003815282600160406000200155600c820291808304600c1490151715610882577f7a5814448ce223a3b3de9ed43f64fd31cd7e13caabaeb2b71ba8250af7bf81219133600052600382526004604060002001556040519283523392a2005b60405162461bcd60e51b815260048101869052602960248201527f43616e6e6f742075706461746520706c616e206166746572207061796d656e746044820152681cc81cdd185c9d195960ba1b6064820152608490fd5b346102195760203660031901126102195760043560005260046020526020604060002054604051908152f35b3461021957600036600319011261021957602060405162278d008152f35b3461021957600036600319011261021957600654611c208101809111610882574310611554577f61c2885fb2a4a6f1a4de4fb596711f648003b9f5564c348504b049235272bb23604061154261166f565b436006558151904382526020820152a1005b62461bcd60e51b815260206004820152601e60248201527f546f6f206561726c7920746f20757064617465207072696365206665656400006044820152606490fd5b60c090600319011261021957600435906024359060443590606435906084359060a43590565b6040906003190112610219576004359060243590565b6000546001600160a01b031633036115e657565b60405163118cdaa760e01b8152336004820152602490fd5b60e0810190811067ffffffffffffffff82111761084057604052565b60c0810190811067ffffffffffffffff82111761084057604052565b90601f8019910116810190811067ffffffffffffffff82111761084057604052565b519069ffffffffffffffffffff8216820361021957565b600554604051633fabe5a360e21b81529060a090829060049082906001600160a01b03165afa801561085657600091829161173a575b5060008213156116f557156116b75790565b60405162461bcd60e51b8152602060048201526016602482015275141c9a58d94819995959081b9bdd081d5c19185d195960521b6044820152606490fd5b60405162461bcd60e51b815260206004820152601960248201527f496e76616c6964207072696365206665656420616e73776572000000000000006044820152606490fd5b91905060a0823d8211611789575b8161175560a09383611636565b81010312611786575061176781611658565b50602081015161177e608060608401519301611658565b5090386116a5565b80fd5b3d9150611748565b90670de0b6b3a76400009182810292818404149015171561088257565b8181029291811591840414171561088257565b81156117cb570490565b634e487b7160e01b600052601260045260246000fd5b9190820180921161088257565b156117f557565b60405162461bcd60e51b815260206004820152602660248201527f4c69666520657870656374616e6379206d75737420626520677265617465722060448201526507468616e20360d41b6064820152608490fd5b1561185057565b60405162461bcd60e51b815260206004820152601d60248201527f5969656c6420726174652063616e6e6f742065786365656420313030250000006044820152606490fd5b1561189c57565b60405162461bcd60e51b815260206004820152602160248201527f496e666c6174696f6e20726174652063616e6e6f7420657863656564203130306044820152602560f81b6064820152608490fd5b9190820391821161088257565b9294919390946119098415156117ee565b8515611ac75780851115611a6a576119519061194b6127109761192e89861115611849565b61193a89871115611895565b610aa361194561166f565b91611791565b956118eb565b9180860180871161088257828701808811610882578782029180830489149015171561088257611980916117c1565b91600091036119be57509061199491611b2b565b91600c810290808204600c1490151715610882576119ba926119b5916117ae565b6117ae565b0490565b93916119cd6119d49183611b2b565b9382611b2b565b9081860390868211611a5657860391868311611a565786820291820487149087141715611a425790611a05916117c1565b92600c820291808304600c1490151715611a2e5750916119b5611a299285946117ae565b040490565b634e487b7160e01b81526011600452602490fd5b634e487b7160e01b85526011600452602485fd5b634e487b7160e01b86526011600452602486fd5b60405162461bcd60e51b815260206004820152602f60248201527f5265746972656d656e7420616765206d7573742062652067726561746572207460448201526e68616e2063757272656e742061676560881b6064820152608490fd5b60405162461bcd60e51b815260206004820152602760248201527f4d6f6e74686c79207370656e64696e67206d75737420626520677265617465726044820152660207468616e20360cc1b6064820152608490fd5b60001981146108825760010190565b91908015611b745760018114611b715791612710926000915b818310611b5057505050565b909193612710611b6383611b6a936117ae565b0494611b1c565b9190611b44565b50565b506127109150565b90918215611be7579161271092600c600092048401908185115b818410611bae5750505050612710916119ba916117ae565b909192946127108102908082046127101490151715610882578161088257611bd984611bdf926117c1565b95611b1c565b929190611b96565b50905090565b15611bf457565b60405162461bcd60e51b815260206004820152601f60248201527f4e6f20616374697665207265746972656d656e7420706c616e20666f756e64006044820152606490fd5b600260015414611c4a576002600155565b604051633ee5aeb560e01b8152600490fd5b15611c6357565b60405162461bcd60e51b815260206004820152601460248201527314185e5b595b9d1cc81b9bdd081cdd185c9d195960621b6044820152606490fd5b15611ca657565b60405162461bcd60e51b81526020600482015260156024820152744e6f207061796d656e74732072656d61696e696e6760581b6044820152606490fd5b3d15611d1e573d9067ffffffffffffffff82116108405760405191611d12601f8201601f191660200184611636565b82523d6000602084013e565b606090565b60018060a01b03811690600090828252602090600382526040908184209060028452828520948351611d54816115fe565b8654815260c060ff600660018a0154998985019a8b526002810154898601526003810154606086015260048101546080860152600581015460a08601520154161515910152611da960ff600285015416611c5c565b6004830191611dcb835497611dbf891515611c9f565b51610aa361194561166f565b938054976005820198895490611de182826118eb565b8811611f40575b508615611efc5786611df9916117e1565b89556000198101908111611ee857858493849384938855600342910155611e2282600a546117e1565b600a555af1611e2f611ce3565b5015611ea4577f49d60844462cb0f82563ebff2fc4c84379ceeb1fce0194c88f01a0a53468cbe1838792549381519081528487820152a215611e72575b50505050565b7fd083bc3caf9b7a542e44da341b42cf5f7327d341b62a461623c5b4a59cb95d0092549051908152a238808080611e6c565b825162461bcd60e51b815260048101859052601760248201527f5061796d656e74207472616e73666572206661696c65640000000000000000006044820152606490fd5b634e487b7160e01b84526011600452602484fd5b875162461bcd60e51b8152600481018a9052601e60248201527f4e6f2066756e647320617661696c61626c6520666f72207061796d656e7400006044820152606490fd5b81975090611f4d916118eb565b9538611de8565b60018060a01b031660005260036020526040600020604051611f758161161a565b81549081815260a0600560018501549485602085015260ff600282015416151560408501526003810154606085015260048101546080850152015491015281811015611fc757611fc4916118eb565b90565b5050600090565b91821561207157611fff821593611fe585156117ee565b61193a612710611ff781861115611849565b871115611895565b92600c8302928304600c14171561088257670de0b6b3a7640000936000918181111561206a5761202f92506118eb565b801561205c5791610aa36120549261204e600c6119ba960491826120c7565b926117ae565b61107461166f565b50612054906119ba926117c1565b505061202f565b60405162461bcd60e51b815260206004820152602860248201527f496e766573746d656e7420616d6f756e74206d75737420626520677265617465604482015267072207468616e20360c41b6064820152608490fd5b90811561211d5761271082810191828211610882576001835b8282106121075750508082029182040361088257611fc492612101916117c1565b906118eb565b909383611b6383612117936117ae565b906120e0565b61271080820292508115918304141715610882579056fea264697066735822122047be37d4a0efc73bf08ca19d0c3548a264d09634f918f84d09b72de64fe39eb764736f6c63430008140033",
  "linkReferences": {},
  "deployedLinkReferences": {}
}